{
  "_format": "hh-sol-artifact-1",
  "contractName": "PokemonToken",
  "sourceName": "contracts/PokemonToken.sol",
  "abi": [
    {
      "inputs": [],
      "stateMutability": "nonpayable",
      "type": "constructor"
    },
    {
      "anonymous": false,
      "inputs": [
        {
          "indexed": true,
          "internalType": "address",
          "name": "_from",
          "type": "address"
        },
        {
          "indexed": true,
          "internalType": "uint256",
          "name": "_pokemonId",
          "type": "uint256"
        },
        {
          "components": [
            {
              "internalType": "uint256",
              "name": "tokenId",
              "type": "uint256"
            },
            {
              "internalType": "uint256",
              "name": "pokemonId",
              "type": "uint256"
            },
            {
              "internalType": "address",
              "name": "owner",
              "type": "address"
            },
            {
              "internalType": "uint256",
              "name": "level",
              "type": "uint256"
            },
            {
              "internalType": "uint256",
              "name": "exp",
              "type": "uint256"
            },
            {
              "internalType": "uint256",
              "name": "attack",
              "type": "uint256"
            }
          ],
          "indexed": false,
          "internalType": "struct PokemonToken.Pokemon",
          "name": "_pokemon",
          "type": "tuple"
        },
        {
          "indexed": false,
          "internalType": "bool",
          "name": "_result",
          "type": "bool"
        },
        {
          "indexed": false,
          "internalType": "uint256",
          "name": "_coins",
          "type": "uint256"
        }
      ],
      "name": "Fight",
      "type": "event"
    },
    {
      "anonymous": false,
      "inputs": [
        {
          "indexed": true,
          "internalType": "address",
          "name": "_from",
          "type": "address"
        },
        {
          "components": [
            {
              "internalType": "uint256",
              "name": "tokenId",
              "type": "uint256"
            },
            {
              "internalType": "uint256",
              "name": "pokemonId",
              "type": "uint256"
            },
            {
              "internalType": "address",
              "name": "owner",
              "type": "address"
            },
            {
              "internalType": "uint256",
              "name": "level",
              "type": "uint256"
            },
            {
              "internalType": "uint256",
              "name": "exp",
              "type": "uint256"
            },
            {
              "internalType": "uint256",
              "name": "attack",
              "type": "uint256"
            }
          ],
          "indexed": false,
          "internalType": "struct PokemonToken.Pokemon",
          "name": "_pokemon",
          "type": "tuple"
        }
      ],
      "name": "Lottery",
      "type": "event"
    },
    {
      "anonymous": false,
      "inputs": [
        {
          "indexed": true,
          "internalType": "address",
          "name": "_from",
          "type": "address"
        },
        {
          "indexed": false,
          "internalType": "bool",
          "name": "_registered",
          "type": "bool"
        }
      ],
      "name": "RegisterNewPlayer",
      "type": "event"
    },
    {
      "anonymous": false,
      "inputs": [
        {
          "indexed": true,
          "internalType": "uint256",
          "name": "_indexId",
          "type": "uint256"
        },
        {
          "indexed": false,
          "internalType": "uint256",
          "name": "_amountInPool",
          "type": "uint256"
        },
        {
          "indexed": false,
          "internalType": "uint256",
          "name": "_amountMax",
          "type": "uint256"
        },
        {
          "indexed": false,
          "internalType": "uint256",
          "name": "_attackBase",
          "type": "uint256"
        },
        {
          "indexed": false,
          "internalType": "uint256",
          "name": "_attackVar",
          "type": "uint256"
        }
      ],
      "name": "ReleaseNewPokemon",
      "type": "event"
    },
    {
      "anonymous": false,
      "inputs": [
        {
          "indexed": true,
          "internalType": "address",
          "name": "_from",
          "type": "address"
        },
        {
          "indexed": true,
          "internalType": "address",
          "name": "_to",
          "type": "address"
        },
        {
          "indexed": false,
          "internalType": "uint256",
          "name": "_coins",
          "type": "uint256"
        }
      ],
      "name": "TransferCoins",
      "type": "event"
    },
    {
      "anonymous": false,
      "inputs": [
        {
          "indexed": true,
          "internalType": "address",
          "name": "_from",
          "type": "address"
        },
        {
          "indexed": true,
          "internalType": "address",
          "name": "_to",
          "type": "address"
        },
        {
          "indexed": false,
          "internalType": "uint256",
          "name": "_pokemonId",
          "type": "uint256"
        }
      ],
      "name": "TransferPokemon",
      "type": "event"
    },
    {
      "inputs": [
        {
          "internalType": "uint256",
          "name": "",
          "type": "uint256"
        }
      ],
      "name": "allPokemon",
      "outputs": [
        {
          "internalType": "uint256",
          "name": "tokenId",
          "type": "uint256"
        },
        {
          "internalType": "uint256",
          "name": "pokemonId",
          "type": "uint256"
        },
        {
          "internalType": "address",
          "name": "owner",
          "type": "address"
        },
        {
          "internalType": "uint256",
          "name": "level",
          "type": "uint256"
        },
        {
          "internalType": "uint256",
          "name": "exp",
          "type": "uint256"
        },
        {
          "internalType": "uint256",
          "name": "attack",
          "type": "uint256"
        }
      ],
      "stateMutability": "view",
      "type": "function"
    },
    {
      "inputs": [
        {
          "internalType": "address",
          "name": "_player",
          "type": "address"
        }
      ],
      "name": "checkPlayerExists",
      "outputs": [
        {
          "internalType": "bool",
          "name": "",
          "type": "bool"
        }
      ],
      "stateMutability": "view",
      "type": "function"
    },
    {
      "inputs": [
        {
          "internalType": "uint256",
          "name": "_pokemonId",
          "type": "uint256"
        }
      ],
      "name": "fight",
      "outputs": [],
      "stateMutability": "nonpayable",
      "type": "function"
    },
    {
      "inputs": [],
      "name": "getAllPokemon",
      "outputs": [
        {
          "components": [
            {
              "internalType": "uint256",
              "name": "tokenId",
              "type": "uint256"
            },
            {
              "internalType": "uint256",
              "name": "pokemonId",
              "type": "uint256"
            },
            {
              "internalType": "address",
              "name": "owner",
              "type": "address"
            },
            {
              "internalType": "uint256",
              "name": "level",
              "type": "uint256"
            },
            {
              "internalType": "uint256",
              "name": "exp",
              "type": "uint256"
            },
            {
              "internalType": "uint256",
              "name": "attack",
              "type": "uint256"
            }
          ],
          "internalType": "struct PokemonToken.Pokemon[]",
          "name": "",
          "type": "tuple[]"
        }
      ],
      "stateMutability": "view",
      "type": "function"
    },
    {
      "inputs": [
        {
          "internalType": "address",
          "name": "_player",
          "type": "address"
        }
      ],
      "name": "getMyCoins",
      "outputs": [
        {
          "internalType": "uint256",
          "name": "",
          "type": "uint256"
        }
      ],
      "stateMutability": "view",
      "type": "function"
    },
    {
      "inputs": [
        {
          "internalType": "address",
          "name": "_player",
          "type": "address"
        }
      ],
      "name": "getMyPokemon",
      "outputs": [
        {
          "components": [
            {
              "internalType": "uint256",
              "name": "tokenId",
              "type": "uint256"
            },
            {
              "internalType": "uint256",
              "name": "pokemonId",
              "type": "uint256"
            },
            {
              "internalType": "address",
              "name": "owner",
              "type": "address"
            },
            {
              "internalType": "uint256",
              "name": "level",
              "type": "uint256"
            },
            {
              "internalType": "uint256",
              "name": "exp",
              "type": "uint256"
            },
            {
              "internalType": "uint256",
              "name": "attack",
              "type": "uint256"
            }
          ],
          "internalType": "struct PokemonToken.Pokemon[]",
          "name": "",
          "type": "tuple[]"
        }
      ],
      "stateMutability": "view",
      "type": "function"
    },
    {
      "inputs": [
        {
          "internalType": "address",
          "name": "_player",
          "type": "address"
        }
      ],
      "name": "getMyPokemonList",
      "outputs": [
        {
          "internalType": "uint256[]",
          "name": "",
          "type": "uint256[]"
        }
      ],
      "stateMutability": "view",
      "type": "function"
    },
    {
      "inputs": [],
      "name": "getTokenId",
      "outputs": [
        {
          "internalType": "uint256",
          "name": "",
          "type": "uint256"
        }
      ],
      "stateMutability": "view",
      "type": "function"
    },
    {
      "inputs": [],
      "name": "getTotalPokemon",
      "outputs": [
        {
          "internalType": "uint256",
          "name": "",
          "type": "uint256"
        }
      ],
      "stateMutability": "view",
      "type": "function"
    },
    {
      "inputs": [],
      "name": "getTotalPokemonDiscovered",
      "outputs": [
        {
          "internalType": "uint256",
          "name": "",
          "type": "uint256"
        }
      ],
      "stateMutability": "view",
      "type": "function"
    },
    {
      "inputs": [
        {
          "internalType": "uint256",
          "name": "",
          "type": "uint256"
        }
      ],
      "name": "idList",
      "outputs": [
        {
          "internalType": "uint256",
          "name": "",
          "type": "uint256"
        }
      ],
      "stateMutability": "view",
      "type": "function"
    },
    {
      "inputs": [],
      "name": "lottery",
      "outputs": [],
      "stateMutability": "nonpayable",
      "type": "function"
    },
    {
      "inputs": [],
      "name": "owner",
      "outputs": [
        {
          "internalType": "address",
          "name": "",
          "type": "address"
        }
      ],
      "stateMutability": "view",
      "type": "function"
    },
    {
      "inputs": [
        {
          "internalType": "address",
          "name": "",
          "type": "address"
        }
      ],
      "name": "playerExists",
      "outputs": [
        {
          "internalType": "bool",
          "name": "",
          "type": "bool"
        }
      ],
      "stateMutability": "view",
      "type": "function"
    },
    {
      "inputs": [
        {
          "internalType": "address",
          "name": "",
          "type": "address"
        },
        {
          "internalType": "uint256",
          "name": "",
          "type": "uint256"
        }
      ],
      "name": "pokemonAddress",
      "outputs": [
        {
          "internalType": "uint256",
          "name": "",
          "type": "uint256"
        }
      ],
      "stateMutability": "view",
      "type": "function"
    },
    {
      "inputs": [
        {
          "internalType": "uint256",
          "name": "",
          "type": "uint256"
        }
      ],
      "name": "pokemonExists",
      "outputs": [
        {
          "internalType": "bool",
          "name": "",
          "type": "bool"
        }
      ],
      "stateMutability": "view",
      "type": "function"
    },
    {
      "inputs": [
        {
          "internalType": "uint256",
          "name": "",
          "type": "uint256"
        }
      ],
      "name": "pokemonIndex",
      "outputs": [
        {
          "internalType": "uint256",
          "name": "indexId",
          "type": "uint256"
        },
        {
          "internalType": "uint256",
          "name": "amountInPool",
          "type": "uint256"
        },
        {
          "internalType": "uint256",
          "name": "amountMax",
          "type": "uint256"
        },
        {
          "internalType": "uint256",
          "name": "attackBase",
          "type": "uint256"
        },
        {
          "internalType": "uint256",
          "name": "attackVar",
          "type": "uint256"
        }
      ],
      "stateMutability": "view",
      "type": "function"
    },
    {
      "inputs": [],
      "name": "registerNewPlayer",
      "outputs": [],
      "stateMutability": "nonpayable",
      "type": "function"
    },
    {
      "inputs": [
        {
          "internalType": "uint256",
          "name": "_amountInPool",
          "type": "uint256"
        },
        {
          "internalType": "uint256",
          "name": "_amountMax",
          "type": "uint256"
        },
        {
          "internalType": "uint256",
          "name": "_attackBase",
          "type": "uint256"
        },
        {
          "internalType": "uint256",
          "name": "_attackVar",
          "type": "uint256"
        }
      ],
      "name": "releaseNewPokemon",
      "outputs": [],
      "stateMutability": "nonpayable",
      "type": "function"
    },
    {
      "inputs": [
        {
          "internalType": "address",
          "name": "_to",
          "type": "address"
        },
        {
          "internalType": "uint256",
          "name": "_coins",
          "type": "uint256"
        }
      ],
      "name": "transferCoins",
      "outputs": [],
      "stateMutability": "nonpayable",
      "type": "function"
    },
    {
      "inputs": [
        {
          "internalType": "address",
          "name": "_to",
          "type": "address"
        },
        {
          "internalType": "uint256",
          "name": "_pokemonId",
          "type": "uint256"
        }
      ],
      "name": "transferPokemon",
      "outputs": [],
      "stateMutability": "nonpayable",
      "type": "function"
    },
    {
      "inputs": [
        {
          "internalType": "uint256",
          "name": "_unit",
          "type": "uint256"
        }
      ],
      "name": "unitCoins",
      "outputs": [
        {
          "internalType": "uint256",
          "name": "",
          "type": "uint256"
        }
      ],
      "stateMutability": "view",
      "type": "function"
    },
    {
      "inputs": [
        {
          "internalType": "address",
          "name": "",
          "type": "address"
        }
      ],
      "name": "walletAddress",
      "outputs": [
        {
          "internalType": "uint256",
          "name": "",
          "type": "uint256"
        }
      ],
      "stateMutability": "view",
      "type": "function"
    }
  ],
  "bytecode": "0x6080604052600180556000600255601460035562989680600455629896806005553480156200002d57600080fd5b50336000806101000a81548173ffffffffffffffffffffffffffffffffffffffff021916908373ffffffffffffffffffffffffffffffffffffffff1602179055506040518060a001604052806001815260200161271081526020016127108152602001600381526020016004815250600b60006001815260200190815260200160002060008201518160000155602082015181600101556040820151816002015560608201518160030155608082015181600401559050506040518060a001604052806001815260200161271081526020016127108152602001600381526020016004815250600b60006002815260200190815260200160002060008201518160000155602082015181600101556040820151816002015560608201518160030155608082015181600401559050506040518060a001604052806001815260200161271081526020016127108152602001600381526020016004815250600b60006003815260200190815260200160002060008201518160000155602082015181600101556040820151816002015560608201518160030155608082015181600401559050506040518060a001604052806001815260200161271081526020016127108152602001600381526020016004815250600b60006004815260200190815260200160002060008201518160000155602082015181600101556040820151816002015560608201518160030155608082015181600401559050506040518060a001604052806001815260200161271081526020016127108152602001600381526020016004815250600b60006005815260200190815260200160002060008201518160000155602082015181600101556040820151816002015560608201518160030155608082015181600401559050506040518060a001604052806001815260200161271081526020016127108152602001600381526020016004815250600b60006006815260200190815260200160002060008201518160000155602082015181600101556040820151816002015560608201518160030155608082015181600401559050506040518060a001604052806001815260200161271081526020016127108152602001600381526020016004815250600b60006007815260200190815260200160002060008201518160000155602082015181600101556040820151816002015560608201518160030155608082015181600401559050506040518060a001604052806001815260200161271081526020016127108152602001600381526020016004815250600b60006008815260200190815260200160002060008201518160000155602082015181600101556040820151816002015560608201518160030155608082015181600401559050506040518060a001604052806001815260200161271081526020016127108152602001600381526020016004815250600b60006009815260200190815260200160002060008201518160000155602082015181600101556040820151816002015560608201518160030155608082015181600401559050506040518060a001604052806001815260200161271081526020016127108152602001600381526020016004815250600b6000600a815260200190815260200160002060008201518160000155602082015181600101556040820151816002015560608201518160030155608082015181600401559050506040518060a001604052806001815260200161138881526020016113888152602001600581526020016004815250600b6000600b815260200190815260200160002060008201518160000155602082015181600101556040820151816002015560608201518160030155608082015181600401559050506040518060a001604052806001815260200161138881526020016113888152602001600581526020016004815250600b6000600c815260200190815260200160002060008201518160000155602082015181600101556040820151816002015560608201518160030155608082015181600401559050506040518060a001604052806001815260200161138881526020016113888152602001600581526020016004815250600b6000600d815260200190815260200160002060008201518160000155602082015181600101556040820151816002015560608201518160030155608082015181600401559050506040518060a001604052806001815260200161138881526020016113888152602001600581526020016004815250600b6000600e815260200190815260200160002060008201518160000155602082015181600101556040820151816002015560608201518160030155608082015181600401559050506040518060a001604052806001815260200161138881526020016113888152602001600581526020016004815250600b6000600f815260200190815260200160002060008201518160000155602082015181600101556040820151816002015560608201518160030155608082015181600401559050506040518060a00160405280600181526020016103e881526020016103e88152602001600881526020016006815250600b60006010815260200190815260200160002060008201518160000155602082015181600101556040820151816002015560608201518160030155608082015181600401559050506040518060a00160405280600181526020016103e881526020016103e88152602001600881526020016006815250600b60006011815260200190815260200160002060008201518160000155602082015181600101556040820151816002015560608201518160030155608082015181600401559050506040518060a00160405280600181526020016103e881526020016103e88152602001600881526020016006815250600b60006012815260200190815260200160002060008201518160000155602082015181600101556040820151816002015560608201518160030155608082015181600401559050506040518060a00160405280600181526020016103e881526020016103e88152602001600881526020016006815250600b60006013815260200190815260200160002060008201518160000155602082015181600101556040820151816002015560608201518160030155608082015181600401559050506040518060a00160405280600181526020016064815260200160648152602001600a8152602001600a815250600b60006014815260200190815260200160002060008201518160000155602082015181600101556040820151816002015560608201518160030155608082015181600401559050506000600190505b6003548160ff161162000a1657600b60008260ff1681526020019081526020016000206001015460026000828254620009f9919062000a1d565b92505081905550808062000a0d9062000a91565b915050620009bf565b5062000aef565b600062000a2a8262000a7a565b915062000a378362000a7a565b9250827fffffffffffffffffffffffffffffffffffffffffffffffffffffffffffffffff0382111562000a6f5762000a6e62000ac0565b5b828201905092915050565b6000819050919050565b600060ff82169050919050565b600062000a9e8262000a84565b915060ff82141562000ab55762000ab462000ac0565b5b600182019050919050565b7f4e487b7100000000000000000000000000000000000000000000000000000000600052601160045260246000fd5b614a328062000aff6000396000f3fe608060405234801561001057600080fd5b506004361061014d5760003560e01c806394bea129116100c3578063d41fde4d1161007c578063d41fde4d146103b8578063d7a6bc0f146103e8578063dd08c4e214610404578063df6a37aa14610434578063e4ece0c314610450578063f8926247146104855761014d565b806394bea129146102e2578063a6f4970514610300578063ba13a57214610330578063bbe523001461033a578063bff250181461036a578063d1b463e2146103885761014d565b80636313531f116101155780636313531f14610220578063638a88ae146102505780638da5cb5b146102805780638da9b4481461029e5780638fd845cb146102ba5780638fe5e954146102d85761014d565b8063010a38f5146101525780632dba5cfa146101705780634081d9161461018c5780635bba907f146101bc5780635de9a9b4146101f0575b600080fd5b61015a6104b5565b60405161016791906141a1565b60405180910390f35b61018a60048036038101906101859190613815565b6104bf565b005b6101a660048036038101906101a191906137ec565b61082c565b6040516101b39190613e5f565b60405180910390f35b6101d660048036038101906101d19190613851565b610882565b6040516101e7959493929190614262565b60405180910390f35b61020a600480360381019061020591906137ec565b6108b8565b6040516102179190613e1b565b60405180910390f35b61023a60048036038101906102359190613851565b610978565b60405161024791906141a1565b60405180910390f35b61026a600480360381019061026591906137ec565b61099c565b60405161027791906141a1565b60405180910390f35b6102886109b4565b6040516102959190613dd7565b60405180910390f35b6102b860048036038101906102b39190613815565b6109d8565b005b6102c2610fe3565b6040516102cf91906141a1565b60405180910390f35b6102e0610fed565b005b6102ea6111f1565b6040516102f791906141a1565b60405180910390f35b61031a600480360381019061031591906137ec565b6111fb565b60405161032791906141a1565b60405180910390f35b610338611244565b005b610354600480360381019061034f91906137ec565b611426565b6040516103619190613e5f565b60405180910390f35b610372611446565b60405161037f9190613e1b565b60405180910390f35b6103a2600480360381019061039d9190613815565b6114c7565b6040516103af91906141a1565b60405180910390f35b6103d260048036038101906103cd91906137ec565b6114f8565b6040516103df9190613e3d565b60405180910390f35b61040260048036038101906103fd919061387a565b61167a565b005b61041e60048036038101906104199190613851565b6117f2565b60405161042b9190613e5f565b60405180910390f35b61044e60048036038101906104499190613851565b611812565b005b61046a60048036038101906104659190613851565b612966565b60405161047c969594939291906141bc565b60405180910390f35b61049f600480360381019061049a9190613851565b6129c2565b6040516104ac91906141a1565b60405180910390f35b6000600154905090565b600760003373ffffffffffffffffffffffffffffffffffffffff1673ffffffffffffffffffffffffffffffffffffffff16815260200190815260200160002060009054906101000a900460ff1661054b576040517f08c379a00000000000000000000000000000000000000000000000000000000081526004016105429061408e565b60405180910390fd5b600760008373ffffffffffffffffffffffffffffffffffffffff1673ffffffffffffffffffffffffffffffffffffffff16815260200190815260200160002060009054906101000a900460ff166105d7576040517f08c379a00000000000000000000000000000000000000000000000000000000081526004016105ce9061410e565b60405180910390fd5b80600c60003373ffffffffffffffffffffffffffffffffffffffff1673ffffffffffffffffffffffffffffffffffffffff168152602001908152602001600020541015610659576040517f08c379a00000000000000000000000000000000000000000000000000000000081526004016106509061404e565b60405180910390fd5b80600c60008473ffffffffffffffffffffffffffffffffffffffff1673ffffffffffffffffffffffffffffffffffffffff16815260200190815260200160002060008282546106a89190614343565b9250508190555080600c60003373ffffffffffffffffffffffffffffffffffffffff1673ffffffffffffffffffffffffffffffffffffffff16815260200190815260200160002060008282546106fe9190614424565b925050819055506107c36040518060400160405280600e81526020017f746f3a25732c2066726f6d3a2573000000000000000000000000000000000000815250600c60008573ffffffffffffffffffffffffffffffffffffffff1673ffffffffffffffffffffffffffffffffffffffff16815260200190815260200160002054600c60003373ffffffffffffffffffffffffffffffffffffffff1673ffffffffffffffffffffffffffffffffffffffff16815260200190815260200160002054612a0d565b8173ffffffffffffffffffffffffffffffffffffffff163373ffffffffffffffffffffffffffffffffffffffff167feb0e8943d49e6a1235071ccab5fac3bc65f88ad794cca673c2ee008702709fb78360405161082091906141a1565b60405180910390a35050565b6000600760008373ffffffffffffffffffffffffffffffffffffffff1673ffffffffffffffffffffffffffffffffffffffff16815260200190815260200160002060009054906101000a900460ff169050919050565b600b6020528060005260406000206000915090508060000154908060010154908060020154908060030154908060040154905085565b60606108db6040518060600160405280603a81526020016148aa603a9139612aac565b610971600a60008473ffffffffffffffffffffffffffffffffffffffff1673ffffffffffffffffffffffffffffffffffffffff16815260200190815260200160002080548060200260200160405190810160405280929190818152602001828054801561096757602002820191906000526020600020905b815481526020019060010190808311610953575b5050505050612b45565b9050919050565b6006818154811061098857600080fd5b906000526020600020016000915090505481565b600c6020528060005260406000206000915090505481565b60008054906101000a900473ffffffffffffffffffffffffffffffffffffffff1681565b600760003373ffffffffffffffffffffffffffffffffffffffff1673ffffffffffffffffffffffffffffffffffffffff16815260200190815260200160002060009054906101000a900460ff16610a64576040517f08c379a0000000000000000000000000000000000000000000000000000000008152600401610a5b9061408e565b60405180910390fd5b600760008373ffffffffffffffffffffffffffffffffffffffff1673ffffffffffffffffffffffffffffffffffffffff16815260200190815260200160002060009054906101000a900460ff16610af0576040517f08c379a0000000000000000000000000000000000000000000000000000000008152600401610ae79061410e565b60405180910390fd5b6008600082815260200190815260200160002060009054906101000a900460ff16610b50576040517f08c379a0000000000000000000000000000000000000000000000000000000008152600401610b4790613fee565b60405180910390fd5b3373ffffffffffffffffffffffffffffffffffffffff166009600083815260200190815260200160002060020160009054906101000a900473ffffffffffffffffffffffffffffffffffffffff1673ffffffffffffffffffffffffffffffffffffffff1614610bf4576040517f08c379a0000000000000000000000000000000000000000000000000000000008152600401610beb9061412e565b60405180910390fd5b816009600083815260200190815260200160002060020160006101000a81548173ffffffffffffffffffffffffffffffffffffffff021916908373ffffffffffffffffffffffffffffffffffffffff16021790555060005b600a60003373ffffffffffffffffffffffffffffffffffffffff1673ffffffffffffffffffffffffffffffffffffffff16815260200190815260200160002080549050811015610f135781600a60003373ffffffffffffffffffffffffffffffffffffffff1673ffffffffffffffffffffffffffffffffffffffff1681526020019081526020016000208281548110610d0e577f4e487b7100000000000000000000000000000000000000000000000000000000600052603260045260246000fd5b90600052602060002001541415610f0057600a60003373ffffffffffffffffffffffffffffffffffffffff1673ffffffffffffffffffffffffffffffffffffffff1681526020019081526020016000206001600a60003373ffffffffffffffffffffffffffffffffffffffff1673ffffffffffffffffffffffffffffffffffffffff16815260200190815260200160002080549050610dad9190614424565b81548110610de4577f4e487b7100000000000000000000000000000000000000000000000000000000600052603260045260246000fd5b9060005260206000200154600a60003373ffffffffffffffffffffffffffffffffffffffff1673ffffffffffffffffffffffffffffffffffffffff1681526020019081526020016000208281548110610e66577f4e487b7100000000000000000000000000000000000000000000000000000000600052603260045260246000fd5b9060005260206000200181905550600a60003373ffffffffffffffffffffffffffffffffffffffff1673ffffffffffffffffffffffffffffffffffffffff168152602001908152602001600020805480610ee9577f4e487b7100000000000000000000000000000000000000000000000000000000600052603160045260246000fd5b600190038181906000526020600020016000905590555b8080610f0b90614568565b915050610c4c565b50600a60008373ffffffffffffffffffffffffffffffffffffffff1673ffffffffffffffffffffffffffffffffffffffff1681526020019081526020016000208190806001815401808255809150506001900390600052602060002001600090919091909150558173ffffffffffffffffffffffffffffffffffffffff163373ffffffffffffffffffffffffffffffffffffffff167f12e073d79b3e360c687115e6e058970813340e9922447de0a0f52de988ea520883604051610fd791906141a1565b60405180910390a35050565b6000600354905090565b600760003373ffffffffffffffffffffffffffffffffffffffff1673ffffffffffffffffffffffffffffffffffffffff16815260200190815260200160002060009054906101000a900460ff1661119f576110496127106129c2565b600c60003373ffffffffffffffffffffffffffffffffffffffff1673ffffffffffffffffffffffffffffffffffffffff168152602001908152602001600020819055506110976127106129c2565b6005546110a49190614424565b6005819055506001600760003373ffffffffffffffffffffffffffffffffffffffff1673ffffffffffffffffffffffffffffffffffffffff16815260200190815260200160002060006101000a81548160ff02191690831515021790555061114b33600c60003373ffffffffffffffffffffffffffffffffffffffff1673ffffffffffffffffffffffffffffffffffffffff16815260200190815260200160002054612f9d565b3373ffffffffffffffffffffffffffffffffffffffff167fb60d7065a524693465c5a3c75004ed6128b9a6ff8c5bbafc26f9799a7e37b37a60016040516111929190613e5f565b60405180910390a26111ef565b3373ffffffffffffffffffffffffffffffffffffffff167fb60d7065a524693465c5a3c75004ed6128b9a6ff8c5bbafc26f9799a7e37b37a60006040516111e69190613e5f565b60405180910390a25b565b6000600254905090565b6000600c60008373ffffffffffffffffffffffffffffffffffffffff1673ffffffffffffffffffffffffffffffffffffffff168152602001908152602001600020549050919050565b600760003373ffffffffffffffffffffffffffffffffffffffff1673ffffffffffffffffffffffffffffffffffffffff16815260200190815260200160002060009054906101000a900460ff166112d0576040517f08c379a00000000000000000000000000000000000000000000000000000000081526004016112c7906140ee565b60405180910390fd5b6064600c60003373ffffffffffffffffffffffffffffffffffffffff1673ffffffffffffffffffffffffffffffffffffffff16815260200190815260200160002054106113e9576064600c60003373ffffffffffffffffffffffffffffffffffffffff1673ffffffffffffffffffffffffffffffffffffffff16815260200190815260200160002060008282546113679190614424565b925050819055506064600560008282546113819190614343565b92505081905550600061139333613039565b90503373ffffffffffffffffffffffffffffffffffffffff167fdfa71fb31128c5c9c8e46fc680f27a842155a9d623bce3efdc6b74684c07cc87826040516113db919061414e565b60405180910390a250611424565b6040517f08c379a000000000000000000000000000000000000000000000000000000000815260040161141b9061406e565b60405180910390fd5b565b60076020528060005260406000206000915054906101000a900460ff1681565b60606114696040518060600160405280603a815260200161499a603a9139612aac565b6114c260068054806020026020016040519081016040528092919081815260200182805480156114b857602002820191906000526020600020905b8154815260200190600101908083116114a4575b5050505050612b45565b905090565b600a60205281600052604060002081815481106114e357600080fd5b90600052602060002001600091509150505481565b606060005b600a60008473ffffffffffffffffffffffffffffffffffffffff1673ffffffffffffffffffffffffffffffffffffffff168152602001908152602001600020805490508110156115e4576115d1600a60008573ffffffffffffffffffffffffffffffffffffffff1673ffffffffffffffffffffffffffffffffffffffff16815260200190815260200160002082815481106115c1577f4e487b7100000000000000000000000000000000000000000000000000000000600052603260045260246000fd5b9060005260206000200154613305565b80806115dc90614568565b9150506114fd565b50600a60008373ffffffffffffffffffffffffffffffffffffffff1673ffffffffffffffffffffffffffffffffffffffff16815260200190815260200160002080548060200260200160405190810160405280929190818152602001828054801561166e57602002820191906000526020600020905b81548152602001906001019080831161165a575b50505050509050919050565b3373ffffffffffffffffffffffffffffffffffffffff1660008054906101000a900473ffffffffffffffffffffffffffffffffffffffff1673ffffffffffffffffffffffffffffffffffffffff1614611708576040517f08c379a00000000000000000000000000000000000000000000000000000000081526004016116ff9061400e565b60405180910390fd5b6003600081548092919061171b90614568565b91905055506040518060a00160405280600354815260200185815260200184815260200183815260200182815250600b60006003548152602001908152602001600020600082015181600001556020820151816001015560408201518160020155606082015181600301556080820151816004015590505083600260008282546117a59190614343565b925050819055506003547fd2649038d8dbd3ce6801e70b021a9b24c8bc66d2b86b8461fbe22c4eb63f3b45858585856040516117e4949392919061421d565b60405180910390a250505050565b60086020528060005260406000206000915054906101000a900460ff1681565b6008600082815260200190815260200160002060009054906101000a900460ff16611872576040517f08c379a0000000000000000000000000000000000000000000000000000000008152600401611869906140ae565b60405180910390fd5b3373ffffffffffffffffffffffffffffffffffffffff166009600083815260200190815260200160002060020160009054906101000a900473ffffffffffffffffffffffffffffffffffffffff1673ffffffffffffffffffffffffffffffffffffffff1614611916576040517f08c379a000000000000000000000000000000000000000000000000000000000815260040161190d9061402e565b60405180910390fd5b600060068054905061192661339e565b61193091906145e5565b90506119536040518060600160405280603a81526020016148e4603a9139612aac565b6119d96040518060600160405280602981526020016149d460299139600960008581526020019081526020016000206000015460096000868152602001908152602001600020600101546009600087815260200190815260200160002060020160009054906101000a900473ffffffffffffffffffffffffffffffffffffffff166133d5565b611a326040518060400160405280600a81526020017f496e64657849642025730000000000000000000000000000000000000000000081525060106009600086815260200190815260200160002060010154901c613477565b611ab56040518060400160405280601f81526020017f6c6576656c202025732c20657870202025732c2061747461636b202025732e00815250600960008581526020019081526020016000206003015460096000868152602001908152602001600020600401546009600087815260200190815260200160002060050154613513565b611b696040518060400160405280600981526020017f636f696e733a2025730000000000000000000000000000000000000000000000815250600c60006009600087815260200190815260200160002060020160009054906101000a900473ffffffffffffffffffffffffffffffffffffffff1673ffffffffffffffffffffffffffffffffffffffff1673ffffffffffffffffffffffffffffffffffffffff16815260200190815260200160002054613477565b611cbb6040518060600160405280602f8152602001614947602f91396009600060068581548110611bc3577f4e487b7100000000000000000000000000000000000000000000000000000000600052603260045260246000fd5b90600052602060002001548152602001908152602001600020600001546009600060068681548110611c1e577f4e487b7100000000000000000000000000000000000000000000000000000000600052603260045260246000fd5b90600052602060002001548152602001908152602001600020600101546009600060068781548110611c79577f4e487b7100000000000000000000000000000000000000000000000000000000600052603260045260246000fd5b9060005260206000200154815260200190815260200160002060020160009054906101000a900473ffffffffffffffffffffffffffffffffffffffff166133d5565b611d586040518060400160405280600a81526020017f496e64657849642025730000000000000000000000000000000000000000000081525060106009600060068681548110611d34577f4e487b7100000000000000000000000000000000000000000000000000000000600052603260045260246000fd5b9060005260206000200154815260200190815260200160002060010154901c613477565b611ea76040518060400160405280601f81526020017f6c6576656c202025732c20657870202025732c2061747461636b202025732e008152506009600060068581548110611dcf577f4e487b7100000000000000000000000000000000000000000000000000000000600052603260045260246000fd5b90600052602060002001548152602001908152602001600020600301546009600060068681548110611e2a577f4e487b7100000000000000000000000000000000000000000000000000000000600052603260045260246000fd5b90600052602060002001548152602001908152602001600020600401546009600060068781548110611e85577f4e487b7100000000000000000000000000000000000000000000000000000000600052603260045260246000fd5b9060005260206000200154815260200190815260200160002060050154613513565b611f9f6040518060400160405280600981526020017f636f696e733a2025730000000000000000000000000000000000000000000000815250600c60006009600060068781548110611f22577f4e487b7100000000000000000000000000000000000000000000000000000000600052603260045260246000fd5b9060005260206000200154815260200190815260200160002060020160009054906101000a900473ffffffffffffffffffffffffffffffffffffffff1673ffffffffffffffffffffffffffffffffffffffff1673ffffffffffffffffffffffffffffffffffffffff16815260200190815260200160002054613477565b60096000838152602001908152602001600020600501546009600060068481548110611ff4577f4e487b7100000000000000000000000000000000000000000000000000000000600052603260045260246000fd5b906000526020600020015481526020019081526020016000206005015460096000858152602001908152602001600020600501546120329190614343565b61203a61339e565b61204491906145e5565b1015612528576009600060068381548110612088577f4e487b7100000000000000000000000000000000000000000000000000000000600052603260045260246000fd5b9060005260206000200154815260200190815260200160002060030154600a6120b191906143ca565b6009600084815260200190815260200160002060040160008282546120d69190614343565b925050819055506120fc6009600084815260200190815260200160002060040154613305565b5b600a600960008481526020019081526020016000206003015461212091906143ca565b6009600084815260200190815260200160002060040154106121fe57600a600960008481526020019081526020016000206003015461215f91906143ca565b6009600084815260200190815260200160002060040160008282546121849190614424565b9250508190555060016009600084815260200190815260200160002060030160008282546121b29190614343565b9250508190555060036121c361339e565b6121cd91906145e5565b6009600084815260200190815260200160002060050160008282546121f29190614343565b925050819055506120fd565b61220860146129c2565b600c60003373ffffffffffffffffffffffffffffffffffffffff1673ffffffffffffffffffffffffffffffffffffffff16815260200190815260200160002060008282546122569190614343565b9250508190555061226760146129c2565b600560008282546122789190614424565b925050819055506122bd6040518060400160405280600481526020017f57696e2100000000000000000000000000000000000000000000000000000000815250612aac565b61234760405180606001604052806029815260200161491e6029913960096000858152602001908152602001600020600101546009600086815260200190815260200160002060020160009054906101000a900473ffffffffffffffffffffffffffffffffffffffff1660106009600088815260200190815260200160002060010154901c6135b5565b6123ca6040518060400160405280601f81526020017f6c6576656c202025732c20657870202025732c2061747461636b202025732e00815250600960008581526020019081526020016000206003015460096000868152602001908152602001600020600401546009600087815260200190815260200160002060050154613513565b61247e6040518060400160405280600981526020017f636f696e733a2025730000000000000000000000000000000000000000000000815250600c60006009600087815260200190815260200160002060020160009054906101000a900473ffffffffffffffffffffffffffffffffffffffff1673ffffffffffffffffffffffffffffffffffffffff1673ffffffffffffffffffffffffffffffffffffffff16815260200190815260200160002054613477565b813373ffffffffffffffffffffffffffffffffffffffff167fc2e88a483fffe7be733412f2f914114c38924fe992d99ad8c829278db2e09fa7600960008681526020019081526020016000206001600c60003373ffffffffffffffffffffffffffffffffffffffff1673ffffffffffffffffffffffffffffffffffffffff1681526020019081526020016000205460405161251b93929190614169565b60405180910390a3612962565b6009600060068381548110612566577f4e487b7100000000000000000000000000000000000000000000000000000000600052603260045260246000fd5b9060005260206000200154815260200190815260200160002060030154600561258f91906143ca565b6009600084815260200190815260200160002060040160008282546125b49190614343565b925050819055505b600a60096000848152602001908152602001600020600301546125df91906143ca565b6009600084815260200190815260200160002060040154106126bd57600a600960008481526020019081526020016000206003015461261e91906143ca565b6009600084815260200190815260200160002060040160008282546126439190614424565b9250508190555060016009600084815260200190815260200160002060030160008282546126719190614343565b92505081905550600361268261339e565b61268c91906145e5565b6009600084815260200190815260200160002060050160008282546126b19190614343565b925050819055506125bc565b6126fb6040518060400160405280600581526020017f4c6f737321000000000000000000000000000000000000000000000000000000815250612aac565b61278560405180606001604052806029815260200161491e6029913960096000858152602001908152602001600020600101546009600086815260200190815260200160002060020160009054906101000a900473ffffffffffffffffffffffffffffffffffffffff1660106009600088815260200190815260200160002060010154901c6135b5565b6128086040518060400160405280601f81526020017f6c6576656c202025732c20657870202025732c2061747461636b202025732e00815250600960008581526020019081526020016000206003015460096000868152602001908152602001600020600401546009600087815260200190815260200160002060050154613513565b6128bc6040518060400160405280600981526020017f636f696e733a2025730000000000000000000000000000000000000000000000815250600c60006009600087815260200190815260200160002060020160009054906101000a900473ffffffffffffffffffffffffffffffffffffffff1673ffffffffffffffffffffffffffffffffffffffff1673ffffffffffffffffffffffffffffffffffffffff16815260200190815260200160002054613477565b813373ffffffffffffffffffffffffffffffffffffffff167fc2e88a483fffe7be733412f2f914114c38924fe992d99ad8c829278db2e09fa7600960008681526020019081526020016000206000600c60003373ffffffffffffffffffffffffffffffffffffffff1673ffffffffffffffffffffffffffffffffffffffff1681526020019081526020016000205460405161295993929190614169565b60405180910390a35b5050565b60096020528060005260406000206000915090508060000154908060010154908060020160009054906101000a900473ffffffffffffffffffffffffffffffffffffffff16908060030154908060040154908060050154905086565b60008060045490505b6005546002826129db9190614399565b1115612a04576002816129ee9190614399565b90506002836129fd9190614399565b92506129cb565b82915050919050565b612aa7838383604051602401612a2593929190613f18565b6040516020818303038152906040527f969cdd03000000000000000000000000000000000000000000000000000000007bffffffffffffffffffffffffffffffffffffffffffffffffffffffff19166020820180517bffffffffffffffffffffffffffffffffffffffffffffffffffffffff8381831617835250505050613657565b505050565b612b4281604051602401612ac09190613e7a565b6040516020818303038152906040527f41304fac000000000000000000000000000000000000000000000000000000007bffffffffffffffffffffffffffffffffffffffffffffffffffffffff19166020820180517bffffffffffffffffffffffffffffffffffffffffffffffffffffffff8381831617835250505050613657565b50565b60606000825167ffffffffffffffff811115612b8a577f4e487b7100000000000000000000000000000000000000000000000000000000600052604160045260246000fd5b604051908082528060200260200182016040528015612bc357816020015b612bb0613776565b815260200190600190039081612ba85790505b50905060005b8351811015612f935760096000858381518110612c0f577f4e487b7100000000000000000000000000000000000000000000000000000000600052603260045260246000fd5b602002602001015181526020019081526020016000206040518060c001604052908160008201548152602001600182015481526020016002820160009054906101000a900473ffffffffffffffffffffffffffffffffffffffff1673ffffffffffffffffffffffffffffffffffffffff1673ffffffffffffffffffffffffffffffffffffffff1681526020016003820154815260200160048201548152602001600582015481525050828281518110612cf1577f4e487b7100000000000000000000000000000000000000000000000000000000600052603260045260246000fd5b6020026020010181905250612dec60405180606001604052806024815260200161497660249139838381518110612d51577f4e487b7100000000000000000000000000000000000000000000000000000000600052603260045260246000fd5b602002602001015160000151848481518110612d96577f4e487b7100000000000000000000000000000000000000000000000000000000600052603260045260246000fd5b602002602001015160200151858581518110612ddb577f4e487b7100000000000000000000000000000000000000000000000000000000600052603260045260246000fd5b6020026020010151604001516133d5565b612e736040518060400160405280600a81526020017f496e6465784964202573000000000000000000000000000000000000000000008152506010848481518110612e60577f4e487b7100000000000000000000000000000000000000000000000000000000600052603260045260246000fd5b602002602001015160200151901c613477565b612f806040518060400160405280601f81526020017f6c6576656c202025732c20657870202025732c2061747461636b202025732e00815250838381518110612ee5577f4e487b7100000000000000000000000000000000000000000000000000000000600052603260045260246000fd5b602002602001015160600151848481518110612f2a577f4e487b7100000000000000000000000000000000000000000000000000000000600052603260045260246000fd5b602002602001015160800151858581518110612f6f577f4e487b7100000000000000000000000000000000000000000000000000000000600052603260045260246000fd5b602002602001015160a00151613513565b8080612f8b90614568565b915050612bc9565b5080915050919050565b6130358282604051602401612fb3929190613df2565b6040516020818303038152906040527f2243cfa3000000000000000000000000000000000000000000000000000000007bffffffffffffffffffffffffffffffffffffffffffffffffffffffff19166020820180517bffffffffffffffffffffffffffffffffffffffffffffffffffffffff8381831617835250505050613657565b5050565b613041613776565b600061304b613680565b90506008600082815260200190815260200160002060009054906101000a900460ff16156130ae576040517f08c379a00000000000000000000000000000000000000000000000000000000081526004016130a5906140ce565b60405180910390fd5b6000600b6000601084901c8152602001908152602001600020600401546130d361339e565b6130dd91906145e5565b600b6000601085901c8152602001908152602001600020600301546131029190614343565b905060006040518060c0016040528060015481526020018481526020018673ffffffffffffffffffffffffffffffffffffffff16815260200160018152602001600081526020018381525090508060096000858152602001908152602001600020600082015181600001556020820151816001015560408201518160020160006101000a81548173ffffffffffffffffffffffffffffffffffffffff021916908373ffffffffffffffffffffffffffffffffffffffff160217905550606082015181600301556080820151816004015560a082015181600501559050506006839080600181540180825580915050600190039060005260206000200160009091909190915055600a60008673ffffffffffffffffffffffffffffffffffffffff1673ffffffffffffffffffffffffffffffffffffffff16815260200190815260200160002083908060018154018082558091505060019003906000526020600020016000909190919091505560016008600085815260200190815260200160002060006101000a81548160ff021916908315150217905550600160008154809291906132ad90614568565b9190505550600260008154809291906132c59061450a565b9190505550600b6000601085901c815260200190815260200160002060010160008154809291906132f59061450a565b9190505550809350505050919050565b61339b8160405160240161331991906141a1565b6040516020818303038152906040527ff5b1bba9000000000000000000000000000000000000000000000000000000007bffffffffffffffffffffffffffffffffffffffffffffffffffffffff19166020820180517bffffffffffffffffffffffffffffffffffffffffffffffffffffffff8381831617835250505050613657565b50565b600043426001546040516020016133b793929190613d9a565b6040516020818303038152906040528051906020012060001c905090565b613471848484846040516024016133ef9493929190613f56565b6040516020818303038152906040527fbed728bf000000000000000000000000000000000000000000000000000000007bffffffffffffffffffffffffffffffffffffffffffffffffffffffff19166020820180517bffffffffffffffffffffffffffffffffffffffffffffffffffffffff8381831617835250505050613657565b50505050565b61350f828260405160240161348d929190613e9c565b6040516020818303038152906040527f9710a9d0000000000000000000000000000000000000000000000000000000007bffffffffffffffffffffffffffffffffffffffffffffffffffffffff19166020820180517bffffffffffffffffffffffffffffffffffffffffffffffffffffffff8381831617835250505050613657565b5050565b6135af8484848460405160240161352d9493929190613fa2565b6040516020818303038152906040527f08ee5666000000000000000000000000000000000000000000000000000000007bffffffffffffffffffffffffffffffffffffffffffffffffffffffff19166020820180517bffffffffffffffffffffffffffffffffffffffffffffffffffffffff8381831617835250505050613657565b50505050565b613651848484846040516024016135cf9493929190613ecc565b6040516020818303038152906040527f58497afe000000000000000000000000000000000000000000000000000000007bffffffffffffffffffffffffffffffffffffffffffffffffffffffff19166020820180517bffffffffffffffffffffffffffffffffffffffffffffffffffffffff8381831617835250505050613657565b50505050565b60008151905060006a636f6e736f6c652e6c6f679050602083016000808483855afa5050505050565b60008060025461368e61339e565b61369891906145e5565b90506000600190505b6003548160ff161161376d57600b60008260ff16815260200190815260200160002060010154821015613733576001600b60008360ff16815260200190815260200160002060010154600b60008460ff1681526020019081526020016000206002015461370e9190614424565b6137189190614343565b60108260ff16901b61372a9190614343565b92505050613773565b600b60008260ff16815260200190815260200160002060010154826137589190614424565b91508080613765906145b1565b9150506136a1565b50600080fd5b90565b6040518060c001604052806000815260200160008152602001600073ffffffffffffffffffffffffffffffffffffffff1681526020016000815260200160008152602001600081525090565b6000813590506137d18161487b565b92915050565b6000813590506137e681614892565b92915050565b6000602082840312156137fe57600080fd5b600061380c848285016137c2565b91505092915050565b6000806040838503121561382857600080fd5b6000613836858286016137c2565b9250506020613847858286016137d7565b9150509250929050565b60006020828403121561386357600080fd5b6000613871848285016137d7565b91505092915050565b6000806000806080858703121561389057600080fd5b600061389e878288016137d7565b94505060206138af878288016137d7565b93505060406138c0878288016137d7565b92505060606138d1878288016137d7565b91505092959194509250565b60006138e98383613bb0565b60c08301905092915050565b60006139018383613d65565b60208301905092915050565b61391681614482565b82525050565b61392581614482565b82525050565b6000613936826142d5565b6139408185614310565b935061394b836142b5565b8060005b8381101561397c57815161396388826138dd565b975061396e836142f6565b92505060018101905061394f565b5085935050505092915050565b6000613994826142e0565b61399e8185614321565b93506139a9836142c5565b8060005b838110156139da5781516139c188826138f5565b97506139cc83614303565b9250506001810190506139ad565b5085935050505092915050565b6139f081614494565b82525050565b6000613a01826142eb565b613a0b8185614332565b9350613a1b8185602086016144d7565b613a2481614674565b840191505092915050565b6000613a3c601c83614332565b9150613a4782614692565b602082019050919050565b6000613a5f602083614332565b9150613a6a826146bb565b602082019050919050565b6000613a82601983614332565b9150613a8d826146e4565b602082019050919050565b6000613aa5601a83614332565b9150613ab08261470d565b602082019050919050565b6000613ac8601083614332565b9150613ad382614736565b602082019050919050565b6000613aeb601e83614332565b9150613af68261475f565b602082019050919050565b6000613b0e601783614332565b9150613b1982614788565b602082019050919050565b6000613b31601683614332565b9150613b3c826147b1565b602082019050919050565b6000613b54601683614332565b9150613b5f826147da565b602082019050919050565b6000613b77601d83614332565b9150613b8282614803565b602082019050919050565b6000613b9a602683614332565b9150613ba58261482c565b604082019050919050565b60c082016000820151613bc66000850182613d65565b506020820151613bd96020850182613d65565b506040820151613bec604085018261390d565b506060820151613bff6060850182613d65565b506080820151613c126080850182613d65565b5060a0820151613c2560a0850182613d65565b50505050565b60c082016000820151613c416000850182613d65565b506020820151613c546020850182613d65565b506040820151613c67604085018261390d565b506060820151613c7a6060850182613d65565b506080820151613c8d6080850182613d65565b5060a0820151613ca060a0850182613d65565b50505050565b60c082016000808301549050613cbb8161454e565b613cc86000860182613d65565b5060018301549050613cd98161454e565b613ce66020860182613d65565b5060028301549050613cf781614534565b613d04604086018261390d565b5060038301549050613d158161454e565b613d226060860182613d65565b5060048301549050613d338161454e565b613d406080860182613d65565b5060058301549050613d518161454e565b613d5e60a0860182613d65565b5050505050565b613d6e816144c0565b82525050565b613d7d816144c0565b82525050565b613d94613d8f826144c0565b6145db565b82525050565b6000613da68286613d83565b602082019150613db68285613d83565b602082019150613dc68284613d83565b602082019150819050949350505050565b6000602082019050613dec600083018461391c565b92915050565b6000604082019050613e07600083018561391c565b613e146020830184613d74565b9392505050565b60006020820190508181036000830152613e35818461392b565b905092915050565b60006020820190508181036000830152613e578184613989565b905092915050565b6000602082019050613e7460008301846139e7565b92915050565b60006020820190508181036000830152613e9481846139f6565b905092915050565b60006040820190508181036000830152613eb681856139f6565b9050613ec56020830184613d74565b9392505050565b60006080820190508181036000830152613ee681876139f6565b9050613ef56020830186613d74565b613f02604083018561391c565b613f0f6060830184613d74565b95945050505050565b60006060820190508181036000830152613f3281866139f6565b9050613f416020830185613d74565b613f4e6040830184613d74565b949350505050565b60006080820190508181036000830152613f7081876139f6565b9050613f7f6020830186613d74565b613f8c6040830185613d74565b613f99606083018461391c565b95945050505050565b60006080820190508181036000830152613fbc81876139f6565b9050613fcb6020830186613d74565b613fd86040830185613d74565b613fe56060830184613d74565b95945050505050565b6000602082019050818103600083015261400781613a2f565b9050919050565b6000602082019050818103600083015261402781613a52565b9050919050565b6000602082019050818103600083015261404781613a75565b9050919050565b6000602082019050818103600083015261406781613a98565b9050919050565b6000602082019050818103600083015261408781613abb565b9050919050565b600060208201905081810360008301526140a781613ade565b9050919050565b600060208201905081810360008301526140c781613b01565b9050919050565b600060208201905081810360008301526140e781613b24565b9050919050565b6000602082019050818103600083015261410781613b47565b9050919050565b6000602082019050818103600083015261412781613b6a565b9050919050565b6000602082019050818103600083015261414781613b8d565b9050919050565b600060c0820190506141636000830184613c2b565b92915050565b60006101008201905061417f6000830186613ca6565b61418c60c08301856139e7565b61419960e0830184613d74565b949350505050565b60006020820190506141b66000830184613d74565b92915050565b600060c0820190506141d16000830189613d74565b6141de6020830188613d74565b6141eb604083018761391c565b6141f86060830186613d74565b6142056080830185613d74565b61421260a0830184613d74565b979650505050505050565b60006080820190506142326000830187613d74565b61423f6020830186613d74565b61424c6040830185613d74565b6142596060830184613d74565b95945050505050565b600060a0820190506142776000830188613d74565b6142846020830187613d74565b6142916040830186613d74565b61429e6060830185613d74565b6142ab6080830184613d74565b9695505050505050565b6000819050602082019050919050565b6000819050602082019050919050565b600081519050919050565b600081519050919050565b600081519050919050565b6000602082019050919050565b6000602082019050919050565b600082825260208201905092915050565b600082825260208201905092915050565b600082825260208201905092915050565b600061434e826144c0565b9150614359836144c0565b9250827fffffffffffffffffffffffffffffffffffffffffffffffffffffffffffffffff0382111561438e5761438d614616565b5b828201905092915050565b60006143a4826144c0565b91506143af836144c0565b9250826143bf576143be614645565b5b828204905092915050565b60006143d5826144c0565b91506143e0836144c0565b9250817fffffffffffffffffffffffffffffffffffffffffffffffffffffffffffffffff048311821515161561441957614418614616565b5b828202905092915050565b600061442f826144c0565b915061443a836144c0565b92508282101561444d5761444c614616565b5b828203905092915050565b600073ffffffffffffffffffffffffffffffffffffffff82169050919050565b6000819050919050565b600061448d826144a0565b9050919050565b60008115159050919050565b600073ffffffffffffffffffffffffffffffffffffffff82169050919050565b6000819050919050565b600060ff82169050919050565b60005b838110156144f55780820151818401526020810190506144da565b83811115614504576000848401525b50505050565b6000614515826144c0565b9150600082141561452957614528614616565b5b600182039050919050565b600061454761454283614685565b614458565b9050919050565b600061456161455c83614685565b614478565b9050919050565b6000614573826144c0565b91507fffffffffffffffffffffffffffffffffffffffffffffffffffffffffffffffff8214156145a6576145a5614616565b5b600182019050919050565b60006145bc826144ca565b915060ff8214156145d0576145cf614616565b5b600182019050919050565b6000819050919050565b60006145f0826144c0565b91506145fb836144c0565b92508261460b5761460a614645565b5b828206905092915050565b7f4e487b7100000000000000000000000000000000000000000000000000000000600052601160045260246000fd5b7f4e487b7100000000000000000000000000000000000000000000000000000000600052601260045260246000fd5b6000601f19601f8301169050919050565b60008160001c9050919050565b7f45786368616e676520706f6b656d6f6e206e6f74206578736974732100000000600082015250565b7f4f6e6c7920474d2063616e2072656c65617365206e657720706f6b656d6f6e21600082015250565b7f54686973206973206e6f7420796f757220706f6b656d6f6e2100000000000000600082015250565b7f446f65736e2774206861766520656e6f75676820636f696e7321000000000000600082015250565b7f4e6f20656e6f75676820636f696e732100000000000000000000000000000000600082015250565b7f43757272656e7420706c61796572206e6f742072656769737465726564210000600082015250565b7f506f6b656d6f6e20646f65736e27742065787369747321000000000000000000600082015250565b7f506f6b656d6f6e20616c72656164792065786973747300000000000000000000600082015250565b7f506c61796572206e6f7420726567697374657265642100000000000000000000600082015250565b7f54617267657420706c61796572206e6f74207265676973746572656421000000600082015250565b7f506f6b656d6f6e20646f65736e27742062656c6f6e6720746f2063757272207060008201527f6c61796572210000000000000000000000000000000000000000000000000000602082015250565b61488481614482565b811461488f57600080fd5b50565b61489b816144c0565b81146148a657600080fd5b5056fe6765744d79506f6b656d6f6e202d2d2d2d2d2d2d2d2d2d2d2d2d2d2d2d2d2d2d2d2d2d2d2d2d2d2d2d2d2d2d2d2d2d2d2d2d2d2d2d2d2d2d2d2d66696768742064657461696c202d2d2d2d2d2d2d2d2d2d2d2d2d2d2d2d2d2d2d2d2d2d2d2d2d2d2d2d2d2d2d2d2d2d2d2d2d2d2d2d2d2d2d2d2d4d79203a20706f6b656d6f6e4964202025732c206f776e6572202025732c20496e6465784964202573436f6d706f6e656e743a20746f6b656e49642025732c20706f6b656d6f6e4964202025732c206f776e657220202573746f6b656e49642025732c20706f6b656d6f6e4964202025732c206f776e657220202573676574416c6c506f6b656d6f6e2d2d2d2d2d2d2d2d2d2d2d2d2d2d2d2d2d2d2d2d2d2d2d2d2d2d2d2d2d2d2d2d2d2d2d2d2d2d2d2d2d2d2d2d2d4d79203a20746f6b656e49642025732c20706f6b656d6f6e4964202025732c206f776e657220202573a264697066735822122013a10574234dadac644eac23a2e196c965b441e2a2cfca61338b9b070178454c64736f6c63430008040033",
  "linkReferences": {},
  "deployedLinkReferences": {}
}