{
  "_format": "hh-sol-artifact-1",
  "contractName": "PokemonToken",
  "sourceName": "contracts/PokemonToken.sol",
  "abi": [
    {
      "inputs": [],
      "stateMutability": "nonpayable",
      "type": "constructor"
    },
    {
      "anonymous": false,
      "inputs": [
        {
          "indexed": true,
          "internalType": "address",
          "name": "_from",
          "type": "address"
        },
        {
          "indexed": true,
          "internalType": "uint256",
          "name": "_pokemonId",
          "type": "uint256"
        },
        {
          "components": [
            {
              "internalType": "uint256",
              "name": "tokenId",
              "type": "uint256"
            },
            {
              "internalType": "uint256",
              "name": "pokemonId",
              "type": "uint256"
            },
            {
              "internalType": "address",
              "name": "owner",
              "type": "address"
            },
            {
              "internalType": "uint256",
              "name": "level",
              "type": "uint256"
            },
            {
              "internalType": "uint256",
              "name": "exp",
              "type": "uint256"
            },
            {
              "internalType": "uint256",
              "name": "attack",
              "type": "uint256"
            }
          ],
          "indexed": false,
          "internalType": "struct PokemonToken.Pokemon",
          "name": "_pokemon",
          "type": "tuple"
        },
        {
          "indexed": false,
          "internalType": "bool",
          "name": "_result",
          "type": "bool"
        },
        {
          "indexed": false,
          "internalType": "uint256",
          "name": "_coins",
          "type": "uint256"
        }
      ],
      "name": "Fight",
      "type": "event"
    },
    {
      "anonymous": false,
      "inputs": [
        {
          "indexed": true,
          "internalType": "address",
          "name": "_from",
          "type": "address"
        },
        {
          "components": [
            {
              "internalType": "uint256",
              "name": "tokenId",
              "type": "uint256"
            },
            {
              "internalType": "uint256",
              "name": "pokemonId",
              "type": "uint256"
            },
            {
              "internalType": "address",
              "name": "owner",
              "type": "address"
            },
            {
              "internalType": "uint256",
              "name": "level",
              "type": "uint256"
            },
            {
              "internalType": "uint256",
              "name": "exp",
              "type": "uint256"
            },
            {
              "internalType": "uint256",
              "name": "attack",
              "type": "uint256"
            }
          ],
          "indexed": false,
          "internalType": "struct PokemonToken.Pokemon",
          "name": "_pokemon",
          "type": "tuple"
        }
      ],
      "name": "Lottery",
      "type": "event"
    },
    {
      "anonymous": false,
      "inputs": [
        {
          "indexed": true,
          "internalType": "address",
          "name": "_from",
          "type": "address"
        },
        {
          "indexed": false,
          "internalType": "bool",
          "name": "_registered",
          "type": "bool"
        }
      ],
      "name": "RegisterNewPlayer",
      "type": "event"
    },
    {
      "anonymous": false,
      "inputs": [
        {
          "indexed": true,
          "internalType": "uint256",
          "name": "_indexId",
          "type": "uint256"
        },
        {
          "indexed": false,
          "internalType": "uint256",
          "name": "_amountInPool",
          "type": "uint256"
        },
        {
          "indexed": false,
          "internalType": "uint256",
          "name": "_amountMax",
          "type": "uint256"
        },
        {
          "indexed": false,
          "internalType": "uint256",
          "name": "_attackBase",
          "type": "uint256"
        },
        {
          "indexed": false,
          "internalType": "uint256",
          "name": "_attackVar",
          "type": "uint256"
        }
      ],
      "name": "ReleaseNewPokemon",
      "type": "event"
    },
    {
      "anonymous": false,
      "inputs": [
        {
          "indexed": true,
          "internalType": "address",
          "name": "_from",
          "type": "address"
        },
        {
          "indexed": true,
          "internalType": "address",
          "name": "_to",
          "type": "address"
        },
        {
          "indexed": false,
          "internalType": "uint256",
          "name": "_coins",
          "type": "uint256"
        }
      ],
      "name": "TransferCoins",
      "type": "event"
    },
    {
      "anonymous": false,
      "inputs": [
        {
          "indexed": true,
          "internalType": "address",
          "name": "_from",
          "type": "address"
        },
        {
          "indexed": true,
          "internalType": "address",
          "name": "_to",
          "type": "address"
        },
        {
          "indexed": false,
          "internalType": "uint256",
          "name": "_pokemonId",
          "type": "uint256"
        }
      ],
      "name": "TransferPokemon",
      "type": "event"
    },
    {
      "inputs": [
        {
          "internalType": "uint256",
          "name": "",
          "type": "uint256"
        }
      ],
      "name": "allPokemon",
      "outputs": [
        {
          "internalType": "uint256",
          "name": "tokenId",
          "type": "uint256"
        },
        {
          "internalType": "uint256",
          "name": "pokemonId",
          "type": "uint256"
        },
        {
          "internalType": "address",
          "name": "owner",
          "type": "address"
        },
        {
          "internalType": "uint256",
          "name": "level",
          "type": "uint256"
        },
        {
          "internalType": "uint256",
          "name": "exp",
          "type": "uint256"
        },
        {
          "internalType": "uint256",
          "name": "attack",
          "type": "uint256"
        }
      ],
      "stateMutability": "view",
      "type": "function"
    },
    {
      "inputs": [
        {
          "internalType": "address",
          "name": "_player",
          "type": "address"
        }
      ],
      "name": "checkPlayerExists",
      "outputs": [
        {
          "internalType": "bool",
          "name": "",
          "type": "bool"
        }
      ],
      "stateMutability": "view",
      "type": "function"
    },
    {
      "inputs": [
        {
          "internalType": "uint256",
          "name": "_pokemonId",
          "type": "uint256"
        }
      ],
      "name": "fight",
      "outputs": [],
      "stateMutability": "nonpayable",
      "type": "function"
    },
    {
      "inputs": [],
      "name": "getAllPokemon",
      "outputs": [
        {
          "components": [
            {
              "internalType": "uint256",
              "name": "tokenId",
              "type": "uint256"
            },
            {
              "internalType": "uint256",
              "name": "pokemonId",
              "type": "uint256"
            },
            {
              "internalType": "address",
              "name": "owner",
              "type": "address"
            },
            {
              "internalType": "uint256",
              "name": "level",
              "type": "uint256"
            },
            {
              "internalType": "uint256",
              "name": "exp",
              "type": "uint256"
            },
            {
              "internalType": "uint256",
              "name": "attack",
              "type": "uint256"
            }
          ],
          "internalType": "struct PokemonToken.Pokemon[]",
          "name": "",
          "type": "tuple[]"
        }
      ],
      "stateMutability": "view",
      "type": "function"
    },
    {
      "inputs": [
        {
          "internalType": "address",
          "name": "_player",
          "type": "address"
        }
      ],
      "name": "getMyCoins",
      "outputs": [
        {
          "internalType": "uint256",
          "name": "",
          "type": "uint256"
        }
      ],
      "stateMutability": "view",
      "type": "function"
    },
    {
      "inputs": [
        {
          "internalType": "address",
          "name": "_player",
          "type": "address"
        }
      ],
      "name": "getMyPokemon",
      "outputs": [
        {
          "components": [
            {
              "internalType": "uint256",
              "name": "tokenId",
              "type": "uint256"
            },
            {
              "internalType": "uint256",
              "name": "pokemonId",
              "type": "uint256"
            },
            {
              "internalType": "address",
              "name": "owner",
              "type": "address"
            },
            {
              "internalType": "uint256",
              "name": "level",
              "type": "uint256"
            },
            {
              "internalType": "uint256",
              "name": "exp",
              "type": "uint256"
            },
            {
              "internalType": "uint256",
              "name": "attack",
              "type": "uint256"
            }
          ],
          "internalType": "struct PokemonToken.Pokemon[]",
          "name": "",
          "type": "tuple[]"
        }
      ],
      "stateMutability": "view",
      "type": "function"
    },
    {
      "inputs": [
        {
          "internalType": "address",
          "name": "_player",
          "type": "address"
        }
      ],
      "name": "getMyPokemonList",
      "outputs": [
        {
          "internalType": "uint256[]",
          "name": "",
          "type": "uint256[]"
        }
      ],
      "stateMutability": "view",
      "type": "function"
    },
    {
      "inputs": [],
      "name": "getTokenId",
      "outputs": [
        {
          "internalType": "uint256",
          "name": "",
          "type": "uint256"
        }
      ],
      "stateMutability": "view",
      "type": "function"
    },
    {
      "inputs": [],
      "name": "getTotalPokemon",
      "outputs": [
        {
          "internalType": "uint256",
          "name": "",
          "type": "uint256"
        }
      ],
      "stateMutability": "view",
      "type": "function"
    },
    {
      "inputs": [],
      "name": "getTotalPokemonDiscovered",
      "outputs": [
        {
          "internalType": "uint256",
          "name": "",
          "type": "uint256"
        }
      ],
      "stateMutability": "view",
      "type": "function"
    },
    {
      "inputs": [
        {
          "internalType": "uint256",
          "name": "",
          "type": "uint256"
        }
      ],
      "name": "idList",
      "outputs": [
        {
          "internalType": "uint256",
          "name": "",
          "type": "uint256"
        }
      ],
      "stateMutability": "view",
      "type": "function"
    },
    {
      "inputs": [],
      "name": "lottery",
      "outputs": [],
      "stateMutability": "nonpayable",
      "type": "function"
    },
    {
      "inputs": [],
      "name": "owner",
      "outputs": [
        {
          "internalType": "address",
          "name": "",
          "type": "address"
        }
      ],
      "stateMutability": "view",
      "type": "function"
    },
    {
      "inputs": [
        {
          "internalType": "address",
          "name": "",
          "type": "address"
        }
      ],
      "name": "playerExists",
      "outputs": [
        {
          "internalType": "bool",
          "name": "",
          "type": "bool"
        }
      ],
      "stateMutability": "view",
      "type": "function"
    },
    {
      "inputs": [
        {
          "internalType": "address",
          "name": "",
          "type": "address"
        },
        {
          "internalType": "uint256",
          "name": "",
          "type": "uint256"
        }
      ],
      "name": "pokemonAddress",
      "outputs": [
        {
          "internalType": "uint256",
          "name": "",
          "type": "uint256"
        }
      ],
      "stateMutability": "view",
      "type": "function"
    },
    {
      "inputs": [
        {
          "internalType": "uint256",
          "name": "",
          "type": "uint256"
        }
      ],
      "name": "pokemonExists",
      "outputs": [
        {
          "internalType": "bool",
          "name": "",
          "type": "bool"
        }
      ],
      "stateMutability": "view",
      "type": "function"
    },
    {
      "inputs": [
        {
          "internalType": "uint256",
          "name": "",
          "type": "uint256"
        }
      ],
      "name": "pokemonIndex",
      "outputs": [
        {
          "internalType": "uint256",
          "name": "indexId",
          "type": "uint256"
        },
        {
          "internalType": "uint256",
          "name": "amountInPool",
          "type": "uint256"
        },
        {
          "internalType": "uint256",
          "name": "amountMax",
          "type": "uint256"
        },
        {
          "internalType": "uint256",
          "name": "attackBase",
          "type": "uint256"
        },
        {
          "internalType": "uint256",
          "name": "attackVar",
          "type": "uint256"
        }
      ],
      "stateMutability": "view",
      "type": "function"
    },
    {
      "inputs": [],
      "name": "registerNewPlayer",
      "outputs": [],
      "stateMutability": "nonpayable",
      "type": "function"
    },
    {
      "inputs": [
        {
          "internalType": "uint256",
          "name": "_amountInPool",
          "type": "uint256"
        },
        {
          "internalType": "uint256",
          "name": "_amountMax",
          "type": "uint256"
        },
        {
          "internalType": "uint256",
          "name": "_attackBase",
          "type": "uint256"
        },
        {
          "internalType": "uint256",
          "name": "_attackVar",
          "type": "uint256"
        }
      ],
      "name": "releaseNewPokemon",
      "outputs": [],
      "stateMutability": "nonpayable",
      "type": "function"
    },
    {
      "inputs": [
        {
          "internalType": "address",
          "name": "_to",
          "type": "address"
        },
        {
          "internalType": "uint256",
          "name": "_coins",
          "type": "uint256"
        }
      ],
      "name": "transferCoins",
      "outputs": [],
      "stateMutability": "nonpayable",
      "type": "function"
    },
    {
      "inputs": [
        {
          "internalType": "address",
          "name": "_to",
          "type": "address"
        },
        {
          "internalType": "uint256",
          "name": "_pokemonId",
          "type": "uint256"
        }
      ],
      "name": "transferPokemon",
      "outputs": [],
      "stateMutability": "nonpayable",
      "type": "function"
    },
    {
      "inputs": [
        {
          "internalType": "uint256",
          "name": "_unit",
          "type": "uint256"
        }
      ],
      "name": "unitCoins",
      "outputs": [
        {
          "internalType": "uint256",
          "name": "",
          "type": "uint256"
        }
      ],
      "stateMutability": "view",
      "type": "function"
    },
    {
      "inputs": [
        {
          "internalType": "address",
          "name": "",
          "type": "address"
        }
      ],
      "name": "walletAddress",
      "outputs": [
        {
          "internalType": "uint256",
          "name": "",
          "type": "uint256"
        }
      ],
      "stateMutability": "view",
      "type": "function"
    }
  ],
  "bytecode": "0x6080604052600180556000600255601460035562989680600455629896806005553480156200002d57600080fd5b50336000806101000a81548173ffffffffffffffffffffffffffffffffffffffff021916908373ffffffffffffffffffffffffffffffffffffffff1602179055506040518060a001604052806001815260200161271081526020016127108152602001600381526020016004815250600b60006001815260200190815260200160002060008201518160000155602082015181600101556040820151816002015560608201518160030155608082015181600401559050506040518060a001604052806001815260200161271081526020016127108152602001600381526020016004815250600b60006002815260200190815260200160002060008201518160000155602082015181600101556040820151816002015560608201518160030155608082015181600401559050506040518060a001604052806001815260200161271081526020016127108152602001600381526020016004815250600b60006003815260200190815260200160002060008201518160000155602082015181600101556040820151816002015560608201518160030155608082015181600401559050506040518060a001604052806001815260200161271081526020016127108152602001600381526020016004815250600b60006004815260200190815260200160002060008201518160000155602082015181600101556040820151816002015560608201518160030155608082015181600401559050506040518060a001604052806001815260200161271081526020016127108152602001600381526020016004815250600b60006005815260200190815260200160002060008201518160000155602082015181600101556040820151816002015560608201518160030155608082015181600401559050506040518060a001604052806001815260200161271081526020016127108152602001600381526020016004815250600b60006006815260200190815260200160002060008201518160000155602082015181600101556040820151816002015560608201518160030155608082015181600401559050506040518060a001604052806001815260200161271081526020016127108152602001600381526020016004815250600b60006007815260200190815260200160002060008201518160000155602082015181600101556040820151816002015560608201518160030155608082015181600401559050506040518060a001604052806001815260200161271081526020016127108152602001600381526020016004815250600b60006008815260200190815260200160002060008201518160000155602082015181600101556040820151816002015560608201518160030155608082015181600401559050506040518060a001604052806001815260200161271081526020016127108152602001600381526020016004815250600b60006009815260200190815260200160002060008201518160000155602082015181600101556040820151816002015560608201518160030155608082015181600401559050506040518060a001604052806001815260200161271081526020016127108152602001600381526020016004815250600b6000600a815260200190815260200160002060008201518160000155602082015181600101556040820151816002015560608201518160030155608082015181600401559050506040518060a001604052806001815260200161138881526020016113888152602001600581526020016004815250600b6000600b815260200190815260200160002060008201518160000155602082015181600101556040820151816002015560608201518160030155608082015181600401559050506040518060a001604052806001815260200161138881526020016113888152602001600581526020016004815250600b6000600c815260200190815260200160002060008201518160000155602082015181600101556040820151816002015560608201518160030155608082015181600401559050506040518060a001604052806001815260200161138881526020016113888152602001600581526020016004815250600b6000600d815260200190815260200160002060008201518160000155602082015181600101556040820151816002015560608201518160030155608082015181600401559050506040518060a001604052806001815260200161138881526020016113888152602001600581526020016004815250600b6000600e815260200190815260200160002060008201518160000155602082015181600101556040820151816002015560608201518160030155608082015181600401559050506040518060a001604052806001815260200161138881526020016113888152602001600581526020016004815250600b6000600f815260200190815260200160002060008201518160000155602082015181600101556040820151816002015560608201518160030155608082015181600401559050506040518060a00160405280600181526020016103e881526020016103e88152602001600881526020016006815250600b60006010815260200190815260200160002060008201518160000155602082015181600101556040820151816002015560608201518160030155608082015181600401559050506040518060a00160405280600181526020016103e881526020016103e88152602001600881526020016006815250600b60006011815260200190815260200160002060008201518160000155602082015181600101556040820151816002015560608201518160030155608082015181600401559050506040518060a00160405280600181526020016103e881526020016103e88152602001600881526020016006815250600b60006012815260200190815260200160002060008201518160000155602082015181600101556040820151816002015560608201518160030155608082015181600401559050506040518060a00160405280600181526020016103e881526020016103e88152602001600881526020016006815250600b60006013815260200190815260200160002060008201518160000155602082015181600101556040820151816002015560608201518160030155608082015181600401559050506040518060a00160405280600181526020016064815260200160648152602001600a8152602001600a815250600b60006014815260200190815260200160002060008201518160000155602082015181600101556040820151816002015560608201518160030155608082015181600401559050506000600190505b6003548160ff161162000a1657600b60008260ff1681526020019081526020016000206001015460026000828254620009f9919062000a1d565b92505081905550808062000a0d9062000a91565b915050620009bf565b5062000aef565b600062000a2a8262000a7a565b915062000a378362000a7a565b9250827fffffffffffffffffffffffffffffffffffffffffffffffffffffffffffffffff0382111562000a6f5762000a6e62000ac0565b5b828201905092915050565b6000819050919050565b600060ff82169050919050565b600062000a9e8262000a84565b915060ff82141562000ab55762000ab462000ac0565b5b600182019050919050565b7f4e487b7100000000000000000000000000000000000000000000000000000000600052601160045260246000fd5b6149a48062000aff6000396000f3fe608060405234801561001057600080fd5b506004361061014d5760003560e01c806394bea129116100c3578063d41fde4d1161007c578063d41fde4d146103b8578063d7a6bc0f146103e8578063dd08c4e214610404578063df6a37aa14610434578063e4ece0c314610450578063f8926247146104855761014d565b806394bea129146102e2578063a6f4970514610300578063ba13a57214610330578063bbe523001461033a578063bff250181461036a578063d1b463e2146103885761014d565b80636313531f116101155780636313531f14610220578063638a88ae146102505780638da5cb5b146102805780638da9b4481461029e5780638fd845cb146102ba5780638fe5e954146102d85761014d565b8063010a38f5146101525780632dba5cfa146101705780634081d9161461018c5780635bba907f146101bc5780635de9a9b4146101f0575b600080fd5b61015a6104b5565b604051610167919061411d565b60405180910390f35b61018a600480360381019061018591906137e5565b6104bf565b005b6101a660048036038101906101a191906137bc565b61082c565b6040516101b39190613ddb565b60405180910390f35b6101d660048036038101906101d19190613821565b610882565b6040516101e79594939291906141de565b60405180910390f35b61020a600480360381019061020591906137bc565b6108b8565b6040516102179190613d97565b60405180910390f35b61023a60048036038101906102359190613821565b610978565b604051610247919061411d565b60405180910390f35b61026a600480360381019061026591906137bc565b61099c565b604051610277919061411d565b60405180910390f35b6102886109b4565b6040516102959190613d53565b60405180910390f35b6102b860048036038101906102b391906137e5565b6109d8565b005b6102c2610fe3565b6040516102cf919061411d565b60405180910390f35b6102e0610fed565b005b6102ea6111ef565b6040516102f7919061411d565b60405180910390f35b61031a600480360381019061031591906137bc565b6111f9565b604051610327919061411d565b60405180910390f35b610338611242565b005b610354600480360381019061034f91906137bc565b611424565b6040516103619190613ddb565b60405180910390f35b610372611444565b60405161037f9190613d97565b60405180910390f35b6103a2600480360381019061039d91906137e5565b6114c5565b6040516103af919061411d565b60405180910390f35b6103d260048036038101906103cd91906137bc565b6114f6565b6040516103df9190613db9565b60405180910390f35b61040260048036038101906103fd919061384a565b611678565b005b61041e60048036038101906104199190613821565b6117f0565b60405161042b9190613ddb565b60405180910390f35b61044e60048036038101906104499190613821565b611810565b005b61046a60048036038101906104659190613821565b612964565b60405161047c96959493929190614138565b60405180910390f35b61049f600480360381019061049a9190613821565b6129c0565b6040516104ac919061411d565b60405180910390f35b6000600154905090565b600760003373ffffffffffffffffffffffffffffffffffffffff1673ffffffffffffffffffffffffffffffffffffffff16815260200190815260200160002060009054906101000a900460ff1661054b576040517f08c379a00000000000000000000000000000000000000000000000000000000081526004016105429061400a565b60405180910390fd5b600760008373ffffffffffffffffffffffffffffffffffffffff1673ffffffffffffffffffffffffffffffffffffffff16815260200190815260200160002060009054906101000a900460ff166105d7576040517f08c379a00000000000000000000000000000000000000000000000000000000081526004016105ce9061408a565b60405180910390fd5b80600c60003373ffffffffffffffffffffffffffffffffffffffff1673ffffffffffffffffffffffffffffffffffffffff168152602001908152602001600020541015610659576040517f08c379a000000000000000000000000000000000000000000000000000000000815260040161065090613fca565b60405180910390fd5b80600c60008473ffffffffffffffffffffffffffffffffffffffff1673ffffffffffffffffffffffffffffffffffffffff16815260200190815260200160002060008282546106a891906142bf565b9250508190555080600c60003373ffffffffffffffffffffffffffffffffffffffff1673ffffffffffffffffffffffffffffffffffffffff16815260200190815260200160002060008282546106fe91906143a0565b925050819055506107c36040518060400160405280600e81526020017f746f3a25732c2066726f6d3a2573000000000000000000000000000000000000815250600c60008573ffffffffffffffffffffffffffffffffffffffff1673ffffffffffffffffffffffffffffffffffffffff16815260200190815260200160002054600c60003373ffffffffffffffffffffffffffffffffffffffff1673ffffffffffffffffffffffffffffffffffffffff16815260200190815260200160002054612a0b565b8173ffffffffffffffffffffffffffffffffffffffff163373ffffffffffffffffffffffffffffffffffffffff167feb0e8943d49e6a1235071ccab5fac3bc65f88ad794cca673c2ee008702709fb783604051610820919061411d565b60405180910390a35050565b6000600760008373ffffffffffffffffffffffffffffffffffffffff1673ffffffffffffffffffffffffffffffffffffffff16815260200190815260200160002060009054906101000a900460ff169050919050565b600b6020528060005260406000206000915090508060000154908060010154908060020154908060030154908060040154905085565b60606108db6040518060600160405280603a815260200161481c603a9139612aaa565b610971600a60008473ffffffffffffffffffffffffffffffffffffffff1673ffffffffffffffffffffffffffffffffffffffff16815260200190815260200160002080548060200260200160405190810160405280929190818152602001828054801561096757602002820191906000526020600020905b815481526020019060010190808311610953575b5050505050612b43565b9050919050565b6006818154811061098857600080fd5b906000526020600020016000915090505481565b600c6020528060005260406000206000915090505481565b60008054906101000a900473ffffffffffffffffffffffffffffffffffffffff1681565b600760003373ffffffffffffffffffffffffffffffffffffffff1673ffffffffffffffffffffffffffffffffffffffff16815260200190815260200160002060009054906101000a900460ff16610a64576040517f08c379a0000000000000000000000000000000000000000000000000000000008152600401610a5b9061400a565b60405180910390fd5b600760008373ffffffffffffffffffffffffffffffffffffffff1673ffffffffffffffffffffffffffffffffffffffff16815260200190815260200160002060009054906101000a900460ff16610af0576040517f08c379a0000000000000000000000000000000000000000000000000000000008152600401610ae79061408a565b60405180910390fd5b6008600082815260200190815260200160002060009054906101000a900460ff16610b50576040517f08c379a0000000000000000000000000000000000000000000000000000000008152600401610b4790613f6a565b60405180910390fd5b3373ffffffffffffffffffffffffffffffffffffffff166009600083815260200190815260200160002060020160009054906101000a900473ffffffffffffffffffffffffffffffffffffffff1673ffffffffffffffffffffffffffffffffffffffff1614610bf4576040517f08c379a0000000000000000000000000000000000000000000000000000000008152600401610beb906140aa565b60405180910390fd5b816009600083815260200190815260200160002060020160006101000a81548173ffffffffffffffffffffffffffffffffffffffff021916908373ffffffffffffffffffffffffffffffffffffffff16021790555060005b600a60003373ffffffffffffffffffffffffffffffffffffffff1673ffffffffffffffffffffffffffffffffffffffff16815260200190815260200160002080549050811015610f135781600a60003373ffffffffffffffffffffffffffffffffffffffff1673ffffffffffffffffffffffffffffffffffffffff1681526020019081526020016000208281548110610d0e577f4e487b7100000000000000000000000000000000000000000000000000000000600052603260045260246000fd5b90600052602060002001541415610f0057600a60003373ffffffffffffffffffffffffffffffffffffffff1673ffffffffffffffffffffffffffffffffffffffff1681526020019081526020016000206001600a60003373ffffffffffffffffffffffffffffffffffffffff1673ffffffffffffffffffffffffffffffffffffffff16815260200190815260200160002080549050610dad91906143a0565b81548110610de4577f4e487b7100000000000000000000000000000000000000000000000000000000600052603260045260246000fd5b9060005260206000200154600a60003373ffffffffffffffffffffffffffffffffffffffff1673ffffffffffffffffffffffffffffffffffffffff1681526020019081526020016000208281548110610e66577f4e487b7100000000000000000000000000000000000000000000000000000000600052603260045260246000fd5b9060005260206000200181905550600a60003373ffffffffffffffffffffffffffffffffffffffff1673ffffffffffffffffffffffffffffffffffffffff168152602001908152602001600020805480610ee9577f4e487b7100000000000000000000000000000000000000000000000000000000600052603160045260246000fd5b600190038181906000526020600020016000905590555b8080610f0b906144e4565b915050610c4c565b50600a60008373ffffffffffffffffffffffffffffffffffffffff1673ffffffffffffffffffffffffffffffffffffffff1681526020019081526020016000208190806001815401808255809150506001900390600052602060002001600090919091909150558173ffffffffffffffffffffffffffffffffffffffff163373ffffffffffffffffffffffffffffffffffffffff167f12e073d79b3e360c687115e6e058970813340e9922447de0a0f52de988ea520883604051610fd7919061411d565b60405180910390a35050565b6000600354905090565b600760003373ffffffffffffffffffffffffffffffffffffffff1673ffffffffffffffffffffffffffffffffffffffff16815260200190815260200160002060009054906101000a900460ff1661119d5761104860c86129c0565b600c60003373ffffffffffffffffffffffffffffffffffffffff1673ffffffffffffffffffffffffffffffffffffffff1681526020019081526020016000208190555061109560c86129c0565b6005546110a291906143a0565b6005819055506001600760003373ffffffffffffffffffffffffffffffffffffffff1673ffffffffffffffffffffffffffffffffffffffff16815260200190815260200160002060006101000a81548160ff02191690831515021790555061114933600c60003373ffffffffffffffffffffffffffffffffffffffff1673ffffffffffffffffffffffffffffffffffffffff16815260200190815260200160002054612f9b565b3373ffffffffffffffffffffffffffffffffffffffff167fb60d7065a524693465c5a3c75004ed6128b9a6ff8c5bbafc26f9799a7e37b37a60016040516111909190613ddb565b60405180910390a26111ed565b3373ffffffffffffffffffffffffffffffffffffffff167fb60d7065a524693465c5a3c75004ed6128b9a6ff8c5bbafc26f9799a7e37b37a60006040516111e49190613ddb565b60405180910390a25b565b6000600254905090565b6000600c60008373ffffffffffffffffffffffffffffffffffffffff1673ffffffffffffffffffffffffffffffffffffffff168152602001908152602001600020549050919050565b600760003373ffffffffffffffffffffffffffffffffffffffff1673ffffffffffffffffffffffffffffffffffffffff16815260200190815260200160002060009054906101000a900460ff166112ce576040517f08c379a00000000000000000000000000000000000000000000000000000000081526004016112c59061406a565b60405180910390fd5b6064600c60003373ffffffffffffffffffffffffffffffffffffffff1673ffffffffffffffffffffffffffffffffffffffff16815260200190815260200160002054106113e7576064600c60003373ffffffffffffffffffffffffffffffffffffffff1673ffffffffffffffffffffffffffffffffffffffff168152602001908152602001600020600082825461136591906143a0565b9250508190555060646005600082825461137f91906142bf565b92505081905550600061139133613037565b90503373ffffffffffffffffffffffffffffffffffffffff167fdfa71fb31128c5c9c8e46fc680f27a842155a9d623bce3efdc6b74684c07cc87826040516113d991906140ca565b60405180910390a250611422565b6040517f08c379a000000000000000000000000000000000000000000000000000000000815260040161141990613fea565b60405180910390fd5b565b60076020528060005260406000206000915054906101000a900460ff1681565b60606114676040518060600160405280603a815260200161490c603a9139612aaa565b6114c060068054806020026020016040519081016040528092919081815260200182805480156114b657602002820191906000526020600020905b8154815260200190600101908083116114a2575b5050505050612b43565b905090565b600a60205281600052604060002081815481106114e157600080fd5b90600052602060002001600091509150505481565b606060005b600a60008473ffffffffffffffffffffffffffffffffffffffff1673ffffffffffffffffffffffffffffffffffffffff168152602001908152602001600020805490508110156115e2576115cf600a60008573ffffffffffffffffffffffffffffffffffffffff1673ffffffffffffffffffffffffffffffffffffffff16815260200190815260200160002082815481106115bf577f4e487b7100000000000000000000000000000000000000000000000000000000600052603260045260246000fd5b9060005260206000200154613303565b80806115da906144e4565b9150506114fb565b50600a60008373ffffffffffffffffffffffffffffffffffffffff1673ffffffffffffffffffffffffffffffffffffffff16815260200190815260200160002080548060200260200160405190810160405280929190818152602001828054801561166c57602002820191906000526020600020905b815481526020019060010190808311611658575b50505050509050919050565b3373ffffffffffffffffffffffffffffffffffffffff1660008054906101000a900473ffffffffffffffffffffffffffffffffffffffff1673ffffffffffffffffffffffffffffffffffffffff1614611706576040517f08c379a00000000000000000000000000000000000000000000000000000000081526004016116fd90613f8a565b60405180910390fd5b60036000815480929190611719906144e4565b91905055506040518060a00160405280600354815260200185815260200184815260200183815260200182815250600b60006003548152602001908152602001600020600082015181600001556020820151816001015560408201518160020155606082015181600301556080820151816004015590505083600260008282546117a391906142bf565b925050819055506003547fd2649038d8dbd3ce6801e70b021a9b24c8bc66d2b86b8461fbe22c4eb63f3b45858585856040516117e29493929190614199565b60405180910390a250505050565b60086020528060005260406000206000915054906101000a900460ff1681565b6008600082815260200190815260200160002060009054906101000a900460ff16611870576040517f08c379a00000000000000000000000000000000000000000000000000000000081526004016118679061402a565b60405180910390fd5b3373ffffffffffffffffffffffffffffffffffffffff166009600083815260200190815260200160002060020160009054906101000a900473ffffffffffffffffffffffffffffffffffffffff1673ffffffffffffffffffffffffffffffffffffffff1614611914576040517f08c379a000000000000000000000000000000000000000000000000000000000815260040161190b90613faa565b60405180910390fd5b600060068054905061192461339c565b61192e9190614557565b90506119516040518060600160405280603a8152602001614856603a9139612aaa565b6119d760405180606001604052806029815260200161494660299139600960008581526020019081526020016000206000015460096000868152602001908152602001600020600101546009600087815260200190815260200160002060020160009054906101000a900473ffffffffffffffffffffffffffffffffffffffff166133a5565b611a306040518060400160405280600a81526020017f496e64657849642025730000000000000000000000000000000000000000000081525060106009600086815260200190815260200160002060010154901c613447565b611ab36040518060400160405280601f81526020017f6c6576656c202025732c20657870202025732c2061747461636b202025732e008152506009600085815260200190815260200160002060030154600960008681526020019081526020016000206004015460096000878152602001908152602001600020600501546134e3565b611b676040518060400160405280600981526020017f636f696e733a2025730000000000000000000000000000000000000000000000815250600c60006009600087815260200190815260200160002060020160009054906101000a900473ffffffffffffffffffffffffffffffffffffffff1673ffffffffffffffffffffffffffffffffffffffff1673ffffffffffffffffffffffffffffffffffffffff16815260200190815260200160002054613447565b611cb96040518060600160405280602f81526020016148b9602f91396009600060068581548110611bc1577f4e487b7100000000000000000000000000000000000000000000000000000000600052603260045260246000fd5b90600052602060002001548152602001908152602001600020600001546009600060068681548110611c1c577f4e487b7100000000000000000000000000000000000000000000000000000000600052603260045260246000fd5b90600052602060002001548152602001908152602001600020600101546009600060068781548110611c77577f4e487b7100000000000000000000000000000000000000000000000000000000600052603260045260246000fd5b9060005260206000200154815260200190815260200160002060020160009054906101000a900473ffffffffffffffffffffffffffffffffffffffff166133a5565b611d566040518060400160405280600a81526020017f496e64657849642025730000000000000000000000000000000000000000000081525060106009600060068681548110611d32577f4e487b7100000000000000000000000000000000000000000000000000000000600052603260045260246000fd5b9060005260206000200154815260200190815260200160002060010154901c613447565b611ea56040518060400160405280601f81526020017f6c6576656c202025732c20657870202025732c2061747461636b202025732e008152506009600060068581548110611dcd577f4e487b7100000000000000000000000000000000000000000000000000000000600052603260045260246000fd5b90600052602060002001548152602001908152602001600020600301546009600060068681548110611e28577f4e487b7100000000000000000000000000000000000000000000000000000000600052603260045260246000fd5b90600052602060002001548152602001908152602001600020600401546009600060068781548110611e83577f4e487b7100000000000000000000000000000000000000000000000000000000600052603260045260246000fd5b90600052602060002001548152602001908152602001600020600501546134e3565b611f9d6040518060400160405280600981526020017f636f696e733a2025730000000000000000000000000000000000000000000000815250600c60006009600060068781548110611f20577f4e487b7100000000000000000000000000000000000000000000000000000000600052603260045260246000fd5b9060005260206000200154815260200190815260200160002060020160009054906101000a900473ffffffffffffffffffffffffffffffffffffffff1673ffffffffffffffffffffffffffffffffffffffff1673ffffffffffffffffffffffffffffffffffffffff16815260200190815260200160002054613447565b60096000838152602001908152602001600020600501546009600060068481548110611ff2577f4e487b7100000000000000000000000000000000000000000000000000000000600052603260045260246000fd5b9060005260206000200154815260200190815260200160002060050154600960008581526020019081526020016000206005015461203091906142bf565b61203861339c565b6120429190614557565b1015612526576009600060068381548110612086577f4e487b7100000000000000000000000000000000000000000000000000000000600052603260045260246000fd5b9060005260206000200154815260200190815260200160002060030154600a6120af9190614346565b6009600084815260200190815260200160002060040160008282546120d491906142bf565b925050819055506120fa6009600084815260200190815260200160002060040154613303565b5b600a600960008481526020019081526020016000206003015461211e9190614346565b6009600084815260200190815260200160002060040154106121fc57600a600960008481526020019081526020016000206003015461215d9190614346565b60096000848152602001908152602001600020600401600082825461218291906143a0565b9250508190555060016009600084815260200190815260200160002060030160008282546121b091906142bf565b9250508190555060036121c161339c565b6121cb9190614557565b6009600084815260200190815260200160002060050160008282546121f091906142bf565b925050819055506120fb565b61220660146129c0565b600c60003373ffffffffffffffffffffffffffffffffffffffff1673ffffffffffffffffffffffffffffffffffffffff168152602001908152602001600020600082825461225491906142bf565b9250508190555061226560146129c0565b6005600082825461227691906143a0565b925050819055506122bb6040518060400160405280600481526020017f57696e2100000000000000000000000000000000000000000000000000000000815250612aaa565b6123456040518060600160405280602981526020016148906029913960096000858152602001908152602001600020600101546009600086815260200190815260200160002060020160009054906101000a900473ffffffffffffffffffffffffffffffffffffffff1660106009600088815260200190815260200160002060010154901c613585565b6123c86040518060400160405280601f81526020017f6c6576656c202025732c20657870202025732c2061747461636b202025732e008152506009600085815260200190815260200160002060030154600960008681526020019081526020016000206004015460096000878152602001908152602001600020600501546134e3565b61247c6040518060400160405280600981526020017f636f696e733a2025730000000000000000000000000000000000000000000000815250600c60006009600087815260200190815260200160002060020160009054906101000a900473ffffffffffffffffffffffffffffffffffffffff1673ffffffffffffffffffffffffffffffffffffffff1673ffffffffffffffffffffffffffffffffffffffff16815260200190815260200160002054613447565b813373ffffffffffffffffffffffffffffffffffffffff167fc2e88a483fffe7be733412f2f914114c38924fe992d99ad8c829278db2e09fa7600960008681526020019081526020016000206001600c60003373ffffffffffffffffffffffffffffffffffffffff1673ffffffffffffffffffffffffffffffffffffffff16815260200190815260200160002054604051612519939291906140e5565b60405180910390a3612960565b6009600060068381548110612564577f4e487b7100000000000000000000000000000000000000000000000000000000600052603260045260246000fd5b9060005260206000200154815260200190815260200160002060030154600561258d9190614346565b6009600084815260200190815260200160002060040160008282546125b291906142bf565b925050819055505b600a60096000848152602001908152602001600020600301546125dd9190614346565b6009600084815260200190815260200160002060040154106126bb57600a600960008481526020019081526020016000206003015461261c9190614346565b60096000848152602001908152602001600020600401600082825461264191906143a0565b92505081905550600160096000848152602001908152602001600020600301600082825461266f91906142bf565b92505081905550600361268061339c565b61268a9190614557565b6009600084815260200190815260200160002060050160008282546126af91906142bf565b925050819055506125ba565b6126f96040518060400160405280600581526020017f4c6f737321000000000000000000000000000000000000000000000000000000815250612aaa565b6127836040518060600160405280602981526020016148906029913960096000858152602001908152602001600020600101546009600086815260200190815260200160002060020160009054906101000a900473ffffffffffffffffffffffffffffffffffffffff1660106009600088815260200190815260200160002060010154901c613585565b6128066040518060400160405280601f81526020017f6c6576656c202025732c20657870202025732c2061747461636b202025732e008152506009600085815260200190815260200160002060030154600960008681526020019081526020016000206004015460096000878152602001908152602001600020600501546134e3565b6128ba6040518060400160405280600981526020017f636f696e733a2025730000000000000000000000000000000000000000000000815250600c60006009600087815260200190815260200160002060020160009054906101000a900473ffffffffffffffffffffffffffffffffffffffff1673ffffffffffffffffffffffffffffffffffffffff1673ffffffffffffffffffffffffffffffffffffffff16815260200190815260200160002054613447565b813373ffffffffffffffffffffffffffffffffffffffff167fc2e88a483fffe7be733412f2f914114c38924fe992d99ad8c829278db2e09fa7600960008681526020019081526020016000206000600c60003373ffffffffffffffffffffffffffffffffffffffff1673ffffffffffffffffffffffffffffffffffffffff16815260200190815260200160002054604051612957939291906140e5565b60405180910390a35b5050565b60096020528060005260406000206000915090508060000154908060010154908060020160009054906101000a900473ffffffffffffffffffffffffffffffffffffffff16908060030154908060040154908060050154905086565b60008060045490505b6005546002826129d99190614315565b1115612a02576002816129ec9190614315565b90506002836129fb9190614315565b92506129c9565b82915050919050565b612aa5838383604051602401612a2393929190613e94565b6040516020818303038152906040527f969cdd03000000000000000000000000000000000000000000000000000000007bffffffffffffffffffffffffffffffffffffffffffffffffffffffff19166020820180517bffffffffffffffffffffffffffffffffffffffffffffffffffffffff8381831617835250505050613627565b505050565b612b4081604051602401612abe9190613df6565b6040516020818303038152906040527f41304fac000000000000000000000000000000000000000000000000000000007bffffffffffffffffffffffffffffffffffffffffffffffffffffffff19166020820180517bffffffffffffffffffffffffffffffffffffffffffffffffffffffff8381831617835250505050613627565b50565b60606000825167ffffffffffffffff811115612b88577f4e487b7100000000000000000000000000000000000000000000000000000000600052604160045260246000fd5b604051908082528060200260200182016040528015612bc157816020015b612bae613746565b815260200190600190039081612ba65790505b50905060005b8351811015612f915760096000858381518110612c0d577f4e487b7100000000000000000000000000000000000000000000000000000000600052603260045260246000fd5b602002602001015181526020019081526020016000206040518060c001604052908160008201548152602001600182015481526020016002820160009054906101000a900473ffffffffffffffffffffffffffffffffffffffff1673ffffffffffffffffffffffffffffffffffffffff1673ffffffffffffffffffffffffffffffffffffffff1681526020016003820154815260200160048201548152602001600582015481525050828281518110612cef577f4e487b7100000000000000000000000000000000000000000000000000000000600052603260045260246000fd5b6020026020010181905250612dea6040518060600160405280602481526020016148e860249139838381518110612d4f577f4e487b7100000000000000000000000000000000000000000000000000000000600052603260045260246000fd5b602002602001015160000151848481518110612d94577f4e487b7100000000000000000000000000000000000000000000000000000000600052603260045260246000fd5b602002602001015160200151858581518110612dd9577f4e487b7100000000000000000000000000000000000000000000000000000000600052603260045260246000fd5b6020026020010151604001516133a5565b612e716040518060400160405280600a81526020017f496e6465784964202573000000000000000000000000000000000000000000008152506010848481518110612e5e577f4e487b7100000000000000000000000000000000000000000000000000000000600052603260045260246000fd5b602002602001015160200151901c613447565b612f7e6040518060400160405280601f81526020017f6c6576656c202025732c20657870202025732c2061747461636b202025732e00815250838381518110612ee3577f4e487b7100000000000000000000000000000000000000000000000000000000600052603260045260246000fd5b602002602001015160600151848481518110612f28577f4e487b7100000000000000000000000000000000000000000000000000000000600052603260045260246000fd5b602002602001015160800151858581518110612f6d577f4e487b7100000000000000000000000000000000000000000000000000000000600052603260045260246000fd5b602002602001015160a001516134e3565b8080612f89906144e4565b915050612bc7565b5080915050919050565b6130338282604051602401612fb1929190613d6e565b6040516020818303038152906040527f2243cfa3000000000000000000000000000000000000000000000000000000007bffffffffffffffffffffffffffffffffffffffffffffffffffffffff19166020820180517bffffffffffffffffffffffffffffffffffffffffffffffffffffffff8381831617835250505050613627565b5050565b61303f613746565b6000613049613650565b90506008600082815260200190815260200160002060009054906101000a900460ff16156130ac576040517f08c379a00000000000000000000000000000000000000000000000000000000081526004016130a39061404a565b60405180910390fd5b6000600b6000601084901c8152602001908152602001600020600401546130d161339c565b6130db9190614557565b600b6000601085901c81526020019081526020016000206003015461310091906142bf565b905060006040518060c0016040528060015481526020018481526020018673ffffffffffffffffffffffffffffffffffffffff16815260200160018152602001600081526020018381525090508060096000858152602001908152602001600020600082015181600001556020820151816001015560408201518160020160006101000a81548173ffffffffffffffffffffffffffffffffffffffff021916908373ffffffffffffffffffffffffffffffffffffffff160217905550606082015181600301556080820151816004015560a082015181600501559050506006839080600181540180825580915050600190039060005260206000200160009091909190915055600a60008673ffffffffffffffffffffffffffffffffffffffff1673ffffffffffffffffffffffffffffffffffffffff16815260200190815260200160002083908060018154018082558091505060019003906000526020600020016000909190919091505560016008600085815260200190815260200160002060006101000a81548160ff021916908315150217905550600160008154809291906132ab906144e4565b9190505550600260008154809291906132c390614486565b9190505550600b6000601085901c815260200190815260200160002060010160008154809291906132f390614486565b9190505550809350505050919050565b61339981604051602401613317919061411d565b6040516020818303038152906040527ff5b1bba9000000000000000000000000000000000000000000000000000000007bffffffffffffffffffffffffffffffffffffffffffffffffffffffff19166020820180517bffffffffffffffffffffffffffffffffffffffffffffffffffffffff8381831617835250505050613627565b50565b60006001905090565b613441848484846040516024016133bf9493929190613ed2565b6040516020818303038152906040527fbed728bf000000000000000000000000000000000000000000000000000000007bffffffffffffffffffffffffffffffffffffffffffffffffffffffff19166020820180517bffffffffffffffffffffffffffffffffffffffffffffffffffffffff8381831617835250505050613627565b50505050565b6134df828260405160240161345d929190613e18565b6040516020818303038152906040527f9710a9d0000000000000000000000000000000000000000000000000000000007bffffffffffffffffffffffffffffffffffffffffffffffffffffffff19166020820180517bffffffffffffffffffffffffffffffffffffffffffffffffffffffff8381831617835250505050613627565b5050565b61357f848484846040516024016134fd9493929190613f1e565b6040516020818303038152906040527f08ee5666000000000000000000000000000000000000000000000000000000007bffffffffffffffffffffffffffffffffffffffffffffffffffffffff19166020820180517bffffffffffffffffffffffffffffffffffffffffffffffffffffffff8381831617835250505050613627565b50505050565b6136218484848460405160240161359f9493929190613e48565b6040516020818303038152906040527f58497afe000000000000000000000000000000000000000000000000000000007bffffffffffffffffffffffffffffffffffffffffffffffffffffffff19166020820180517bffffffffffffffffffffffffffffffffffffffffffffffffffffffff8381831617835250505050613627565b50505050565b60008151905060006a636f6e736f6c652e6c6f679050602083016000808483855afa5050505050565b60008060025461365e61339c565b6136689190614557565b90506000600190505b6003548160ff161161373d57600b60008260ff16815260200190815260200160002060010154821015613703576001600b60008360ff16815260200190815260200160002060010154600b60008460ff168152602001908152602001600020600201546136de91906143a0565b6136e891906142bf565b60108260ff16901b6136fa91906142bf565b92505050613743565b600b60008260ff168152602001908152602001600020600101548261372891906143a0565b915080806137359061452d565b915050613671565b50600080fd5b90565b6040518060c001604052806000815260200160008152602001600073ffffffffffffffffffffffffffffffffffffffff1681526020016000815260200160008152602001600081525090565b6000813590506137a1816147ed565b92915050565b6000813590506137b681614804565b92915050565b6000602082840312156137ce57600080fd5b60006137dc84828501613792565b91505092915050565b600080604083850312156137f857600080fd5b600061380685828601613792565b9250506020613817858286016137a7565b9150509250929050565b60006020828403121561383357600080fd5b6000613841848285016137a7565b91505092915050565b6000806000806080858703121561386057600080fd5b600061386e878288016137a7565b945050602061387f878288016137a7565b9350506040613890878288016137a7565b92505060606138a1878288016137a7565b91505092959194509250565b60006138b98383613b80565b60c08301905092915050565b60006138d18383613d35565b60208301905092915050565b6138e6816143fe565b82525050565b6138f5816143fe565b82525050565b600061390682614251565b613910818561428c565b935061391b83614231565b8060005b8381101561394c57815161393388826138ad565b975061393e83614272565b92505060018101905061391f565b5085935050505092915050565b60006139648261425c565b61396e818561429d565b935061397983614241565b8060005b838110156139aa57815161399188826138c5565b975061399c8361427f565b92505060018101905061397d565b5085935050505092915050565b6139c081614410565b82525050565b60006139d182614267565b6139db81856142ae565b93506139eb818560208601614453565b6139f4816145e6565b840191505092915050565b6000613a0c601c836142ae565b9150613a1782614604565b602082019050919050565b6000613a2f6020836142ae565b9150613a3a8261462d565b602082019050919050565b6000613a526019836142ae565b9150613a5d82614656565b602082019050919050565b6000613a75601a836142ae565b9150613a808261467f565b602082019050919050565b6000613a986010836142ae565b9150613aa3826146a8565b602082019050919050565b6000613abb601e836142ae565b9150613ac6826146d1565b602082019050919050565b6000613ade6017836142ae565b9150613ae9826146fa565b602082019050919050565b6000613b016016836142ae565b9150613b0c82614723565b602082019050919050565b6000613b246016836142ae565b9150613b2f8261474c565b602082019050919050565b6000613b47601d836142ae565b9150613b5282614775565b602082019050919050565b6000613b6a6026836142ae565b9150613b758261479e565b604082019050919050565b60c082016000820151613b966000850182613d35565b506020820151613ba96020850182613d35565b506040820151613bbc60408501826138dd565b506060820151613bcf6060850182613d35565b506080820151613be26080850182613d35565b5060a0820151613bf560a0850182613d35565b50505050565b60c082016000820151613c116000850182613d35565b506020820151613c246020850182613d35565b506040820151613c3760408501826138dd565b506060820151613c4a6060850182613d35565b506080820151613c5d6080850182613d35565b5060a0820151613c7060a0850182613d35565b50505050565b60c082016000808301549050613c8b816144ca565b613c986000860182613d35565b5060018301549050613ca9816144ca565b613cb66020860182613d35565b5060028301549050613cc7816144b0565b613cd460408601826138dd565b5060038301549050613ce5816144ca565b613cf26060860182613d35565b5060048301549050613d03816144ca565b613d106080860182613d35565b5060058301549050613d21816144ca565b613d2e60a0860182613d35565b5050505050565b613d3e8161443c565b82525050565b613d4d8161443c565b82525050565b6000602082019050613d6860008301846138ec565b92915050565b6000604082019050613d8360008301856138ec565b613d906020830184613d44565b9392505050565b60006020820190508181036000830152613db181846138fb565b905092915050565b60006020820190508181036000830152613dd38184613959565b905092915050565b6000602082019050613df060008301846139b7565b92915050565b60006020820190508181036000830152613e1081846139c6565b905092915050565b60006040820190508181036000830152613e3281856139c6565b9050613e416020830184613d44565b9392505050565b60006080820190508181036000830152613e6281876139c6565b9050613e716020830186613d44565b613e7e60408301856138ec565b613e8b6060830184613d44565b95945050505050565b60006060820190508181036000830152613eae81866139c6565b9050613ebd6020830185613d44565b613eca6040830184613d44565b949350505050565b60006080820190508181036000830152613eec81876139c6565b9050613efb6020830186613d44565b613f086040830185613d44565b613f1560608301846138ec565b95945050505050565b60006080820190508181036000830152613f3881876139c6565b9050613f476020830186613d44565b613f546040830185613d44565b613f616060830184613d44565b95945050505050565b60006020820190508181036000830152613f83816139ff565b9050919050565b60006020820190508181036000830152613fa381613a22565b9050919050565b60006020820190508181036000830152613fc381613a45565b9050919050565b60006020820190508181036000830152613fe381613a68565b9050919050565b6000602082019050818103600083015261400381613a8b565b9050919050565b6000602082019050818103600083015261402381613aae565b9050919050565b6000602082019050818103600083015261404381613ad1565b9050919050565b6000602082019050818103600083015261406381613af4565b9050919050565b6000602082019050818103600083015261408381613b17565b9050919050565b600060208201905081810360008301526140a381613b3a565b9050919050565b600060208201905081810360008301526140c381613b5d565b9050919050565b600060c0820190506140df6000830184613bfb565b92915050565b6000610100820190506140fb6000830186613c76565b61410860c08301856139b7565b61411560e0830184613d44565b949350505050565b60006020820190506141326000830184613d44565b92915050565b600060c08201905061414d6000830189613d44565b61415a6020830188613d44565b61416760408301876138ec565b6141746060830186613d44565b6141816080830185613d44565b61418e60a0830184613d44565b979650505050505050565b60006080820190506141ae6000830187613d44565b6141bb6020830186613d44565b6141c86040830185613d44565b6141d56060830184613d44565b95945050505050565b600060a0820190506141f36000830188613d44565b6142006020830187613d44565b61420d6040830186613d44565b61421a6060830185613d44565b6142276080830184613d44565b9695505050505050565b6000819050602082019050919050565b6000819050602082019050919050565b600081519050919050565b600081519050919050565b600081519050919050565b6000602082019050919050565b6000602082019050919050565b600082825260208201905092915050565b600082825260208201905092915050565b600082825260208201905092915050565b60006142ca8261443c565b91506142d58361443c565b9250827fffffffffffffffffffffffffffffffffffffffffffffffffffffffffffffffff0382111561430a57614309614588565b5b828201905092915050565b60006143208261443c565b915061432b8361443c565b92508261433b5761433a6145b7565b5b828204905092915050565b60006143518261443c565b915061435c8361443c565b9250817fffffffffffffffffffffffffffffffffffffffffffffffffffffffffffffffff048311821515161561439557614394614588565b5b828202905092915050565b60006143ab8261443c565b91506143b68361443c565b9250828210156143c9576143c8614588565b5b828203905092915050565b600073ffffffffffffffffffffffffffffffffffffffff82169050919050565b6000819050919050565b60006144098261441c565b9050919050565b60008115159050919050565b600073ffffffffffffffffffffffffffffffffffffffff82169050919050565b6000819050919050565b600060ff82169050919050565b60005b83811015614471578082015181840152602081019050614456565b83811115614480576000848401525b50505050565b60006144918261443c565b915060008214156144a5576144a4614588565b5b600182039050919050565b60006144c36144be836145f7565b6143d4565b9050919050565b60006144dd6144d8836145f7565b6143f4565b9050919050565b60006144ef8261443c565b91507fffffffffffffffffffffffffffffffffffffffffffffffffffffffffffffffff82141561452257614521614588565b5b600182019050919050565b600061453882614446565b915060ff82141561454c5761454b614588565b5b600182019050919050565b60006145628261443c565b915061456d8361443c565b92508261457d5761457c6145b7565b5b828206905092915050565b7f4e487b7100000000000000000000000000000000000000000000000000000000600052601160045260246000fd5b7f4e487b7100000000000000000000000000000000000000000000000000000000600052601260045260246000fd5b6000601f19601f8301169050919050565b60008160001c9050919050565b7f45786368616e676520706f6b656d6f6e206e6f74206578736974732100000000600082015250565b7f4f6e6c7920474d2063616e2072656c65617365206e657720706f6b656d6f6e21600082015250565b7f54686973206973206e6f7420796f757220706f6b656d6f6e2100000000000000600082015250565b7f446f65736e2774206861766520656e6f75676820636f696e7321000000000000600082015250565b7f4e6f20656e6f75676820636f696e732100000000000000000000000000000000600082015250565b7f43757272656e7420706c61796572206e6f742072656769737465726564210000600082015250565b7f506f6b656d6f6e20646f65736e27742065787369747321000000000000000000600082015250565b7f506f6b656d6f6e20616c72656164792065786973747300000000000000000000600082015250565b7f506c61796572206e6f7420726567697374657265642100000000000000000000600082015250565b7f54617267657420706c61796572206e6f74207265676973746572656421000000600082015250565b7f506f6b656d6f6e20646f65736e27742062656c6f6e6720746f2063757272207060008201527f6c61796572210000000000000000000000000000000000000000000000000000602082015250565b6147f6816143fe565b811461480157600080fd5b50565b61480d8161443c565b811461481857600080fd5b5056fe6765744d79506f6b656d6f6e202d2d2d2d2d2d2d2d2d2d2d2d2d2d2d2d2d2d2d2d2d2d2d2d2d2d2d2d2d2d2d2d2d2d2d2d2d2d2d2d2d2d2d2d2d66696768742064657461696c202d2d2d2d2d2d2d2d2d2d2d2d2d2d2d2d2d2d2d2d2d2d2d2d2d2d2d2d2d2d2d2d2d2d2d2d2d2d2d2d2d2d2d2d2d4d79203a20706f6b656d6f6e4964202025732c206f776e6572202025732c20496e6465784964202573436f6d706f6e656e743a20746f6b656e49642025732c20706f6b656d6f6e4964202025732c206f776e657220202573746f6b656e49642025732c20706f6b656d6f6e4964202025732c206f776e657220202573676574416c6c506f6b656d6f6e2d2d2d2d2d2d2d2d2d2d2d2d2d2d2d2d2d2d2d2d2d2d2d2d2d2d2d2d2d2d2d2d2d2d2d2d2d2d2d2d2d2d2d2d2d4d79203a20746f6b656e49642025732c20706f6b656d6f6e4964202025732c206f776e657220202573a2646970667358221220a06b3f5ce7ab1f95018f7381403fadb8f3f68803280da09317ce6c678bf868ef64736f6c63430008040033",
  "linkReferences": {},
  "deployedLinkReferences": {}
}